:0400000007EF00F016
:0A00080044820BED08F0FCEF08F055
:10100000003738392F3435362A3132332D23303DED
:051010002B2569000022
:101016000600F2A811EF08F013EF08F01CEF08F035
:10102600F2A218EF08F01AEF08F01CEF08F06AECCD
:1010360009F0F0A621EF08F023EF08F02CEF08F0F6
:10104600F0A028EF08F02AEF08F02CEF08F068EC83
:1010560009F0F0A831EF08F033EF08F03CEF08F0A4
:10106600F0A238EF08F03AEF08F03CEF08F066EC33
:1010760009F09DAC41EF08F043EF08F04CEF08F0A3
:101086009EAC48EF08F04AEF08F04CEF08F06CEC25
:1010960009F0F2A651EF08F053EF08F0FAEF08F066
:1010A600F2A058EF08F05AEF08F0FAEF08F081A81E
:1010B6005FEF08F061EF08F06EEF08F02304D8A4A4
:1010C60067EF08F069EF08F06EEF08F0000E236E88
:1010D600000E50EC09F081B873EF08F075EF08F0D8
:1010E60082EF08F02350D8A47BEF08F07DEF08F0DC
:1010F60082EF08F0010E236E010E50EC09F081AA72
:1011060087EF08F089EF08F096EF08F02204D8A4DC
:101116008FEF08F091EF08F096EF08F0000E226EC0
:10112600000E43EC09F081BA9BEF08F09DEF08F042
:10113600AAEF08F02250D8A4A3EF08F0A5EF08F014
:10114600AAEF08F0010E226E010E43EC09F081AC05
:10115600AFEF08F0B1EF08F0BEEF08F02104D8A415
:10116600B7EF08F0B9EF08F0BEEF08F0000E216EF9
:10117600000E36EC09F081BCC3EF08F0C5EF08F0AD
:10118600D2EF08F02150D8A4CBEF08F0CDEF08F04D
:10119600D2EF08F0010E216E010E36EC09F081AE99
:1011A600D7EF08F0D9EF08F0E6EF08F02004D8A44E
:1011B600DFEF08F0E1EF08F0E6EF08F0000E206E32
:1011C600000E29EC09F081BEEBEF08F0EDEF08F018
:1011D600FAEF08F02050D8A4F3EF08F0F5EF08F086
:1011E600FAEF08F0010E206E010E29EC09F0449288
:1011F60011002E0EF66E120EF76E000EF86E00EE51
:1012060001F010EE23F00900F5CFEEFFE550E150B6
:10121600FAE100EE24F01F0EEE6AE806FDE14490C6
:10122600449200015DEF09F0800F810F820F830F5A
:10123600840F890F8A0F8B0F8C0F8D0F920F930FD0
:0B124600940F950F960F0101010101AC
:10125200436EF2804350D8A431EF09F033EF09F026
:1012620035EF09F035EF09F01200436EF28043507A
:10127200D8A43EEF09F040EF09F042EF09F042EF47
:1012820009F01200436EF2804350D8A44BEF09F0EC
:101292004DEF09F04FEF09F04FEF09F01200436EE6
:1012A200F2804350D8A458EF09F05AEF09F05CEFEE
:1012B20009F05CEF09F0120063EC09F05FEF09F04E
:1012C20007EF00F06EEC09F01200F0921200F090BD
:0C12D2001200F29212009E9C120012000A
:020000040030CA
:0E000000FF071F1FFF8185FF0FC00FE00F409D
:00000001FF
