:0400000007EF00F016
:0A00080071820BED08F0BBEF0BF066
:10100000003738392F3435362A3132332D23303DED
:051010002B2569000022
:101016000600FACF5EF0FBCF5FF0D9CF60F0DACFF3
:1010260061F0F3CF62F0F4CF63F0F2A81DEF08F0A1
:101036001FEF08F028EF08F0F2A224EF08F026EFE1
:1010460008F028EF08F060EC0CF0F0A62DEF08F0A1
:101056002FEF08F038EF08F0F0A034EF08F036EF85
:1010660008F038EF08F05EEC0CF0F0A83DEF08F061
:101076003FEF08F048EF08F0F0A244EF08F046EF23
:1010860008F048EF08F05CEC0CF09DAC4DEF08F072
:101096004FEF08F058EF08F09EAC54EF08F056EF0B
:1010A60008F058EF08F062EC0CF0F2AA5DEF08F0D9
:1010B6005FEF08F068EF08F0F2A464EF08F066EF5F
:1010C60008F068EF08F04DEC0CF09DA06DEF08F00D
:1010D6006FEF08F078EF08F09EA074EF08F076EF57
:1010E60008F078EF08F0D6EC0BF09DA27DEF08F043
:1010F6007FEF08F088EF08F09EA284EF08F086EFF5
:1011060008F088EF08F058EC0CF0F2A68DEF08F026
:101116008FEF08F036EF09F0F2A094EF08F096EFA3
:1011260008F036EF09F081A89BEF08F09DEF08F074
:10113600AAEF08F02304D8A4A3EF08F0A5EF08F05F
:10114600AAEF08F0000E236E000E2EEC0CF081B80C
:10115600AFEF08F0B1EF08F0BEEF08F02350D8A4C7
:10116600B7EF08F0B9EF08F0BEEF08F0010E236EF6
:10117600010E2EEC0CF081AAC3EF08F0C5EF08F0C3
:10118600D2EF08F02204D8A4CBEF08F0CDEF08F098
:10119600D2EF08F0000E226E000E21EC0CF081BAA0
:1011A600D7EF08F0D9EF08F0E6EF08F02250D8A400
:1011B600DFEF08F0E1EF08F0E6EF08F0010E226E2F
:1011C600010E21EC0CF081ACEBEF08F0EDEF08F02E
:1011D600FAEF08F02104D8A4F3EF08F0F5EF08F0D1
:1011E600FAEF08F0000E216E000E14EC0CF081BC34
:1011F600FFEF08F001EF09F00EEF09F02150D8A437
:1012060007EF09F009EF09F00EEF09F0010E216E64
:10121600010E14EC0CF081AE13EF09F015EF09F096
:1012260022EF09F02004D8A41BEF09F01DEF09F006
:1012360022EF09F0000E206E000E07EC0CF081BEC6
:1012460027EF09F029EF09F036EF09F02050D8A46E
:101256002FEF09F031EF09F036EF09F0010E206E9D
:10126600010E07EC0CF063C0F4FF62C0F3FF61C02F
:10127600DAFF60C0D9FF5FC0FBFF5EC0FAFF719264
:101286001100010E6A6E6450D8B44CEF09F04EEFAF
:1012960009F05EEF09F06450D96EDA6ADF30E832A1
:1012A600E832070B656E070E65645CEF09F05EEFCA
:1012B60009F0B5EF09F0000E6A6ED5EF09F064503B
:1012C600D96EDA6ADF30E832E832070B656E010E56
:1012D600666E652A71EF09F0D8906636652E6FEF57
:1012E60009F06650FF0A676E6450D96EDA6ADF50FD
:1012F600070B020DF350150FD96EDA6ADECF68F0D0
:10130600DDCF69F068C0D9FF69C0DAFF6750DF1624
:10131600D5EF09F06450D96EDA6ADF30E832E83288
:10132600070B656E010E666E652A9CEF09F0D89074
:101336006636652E9AEF09F06450D96EDA6ADF5088
:10134600070B020DF350150FD96EDA6ADECF67F080
:10135600DDCF68F067C0D9FF68C0DAFF6650DF12DC
:10136600D5EF09F06450D96EDA6ADFBCBDEF09F03B
:10137600C0EF09F0010EC1EF09F0000E656E666A56
:101386006650000AD8B4CAEF09F05EEF09F065505E
:10139600000AD8B462EF09F0010AD8B48DEF09F05B
:1013A6005EEF09F06A501200010E6B6E6450D8B4FD
:1013B600DFEF09F0E1EF09F0F1EF09F06450D96EC3
:1013C600DA6ADF30E832E832070B666E070E6664CB
:1013D600EFEF09F0F1EF09F048EF0AF0000E6B6E3F
:1013E6005DEF0AF06450D96EDA6ADF30E832E8322F
:1013F600070B666E010E676E662A04EF0AF0D89038
:101406006736662E02EF0AF06450D96EDA6ADF504C
:10141600070B020DF3500B0FD96EDA6ADECF68F0B8
:10142600DDCF69F068C0D9FF69C0DAFF6750DF1207
:101436005DEF0AF06450D96EDA6ADF30E832E832DE
:10144600070B666E010E676E662A2CEF0AF0D890BF
:101456006736662E2AEF0AF06750FF0A686E6450F8
:10146600D96EDA6ADF50070B020DF3500B0FD96EF7
:10147600DA6ADECF69F0DDCF6AF069C0D9FF6AC0EB
:10148600DAFF6850DF165DEF0AF06550666E676A30
:101496006750000AD8B452EF0AF0F1EF09F066502F
:1014A600000AD8B41DEF0AF0010AD8B4F5EF09F026
:1014B600F1EF09F06B5012006550D96EDA6A040E2E
:1014C600D926DECF6FF0DDCF70F06550D8A46EEF71
:1014D6000AF070EF0AF072EF0AF0A5EF0AF0CD906D
:1014E60065C064F0E7EC0AF06550D96EDA6A030E5F
:1014F600D926DF50666E663ACD506618CF0B661851
:10150600CD6E6550D96EDA6A040ED926DECF66F046
:10151600DDCF67F067C066F0676A6650CF6E6550CC
:10152600D96EDA6A040ED926DF50CE6E9D809E9063
:101536006550D96EDA6ADECF30F0DDCF31F0F28E4B
:10154600F28CCD8012005650D8B4ACEF0AF0AEEF54
:101556000AF0BEEF0AF05650D96EDA6ADF30E8328A
:10156600E832070B576E070E5764BCEF0AF0BEEF62
:101576000AF0C0EF0AF0E6EF0AF05650D96EDA6AC2
:10158600DF30E832E832070B576E010E586E572AE5
:10159600CFEF0AF0D8905836572ECDEF0AF05650B6
:1015A600D96EDA6ADF50070B020DF3500B0FD96EB6
:1015B600DA6ADECF59F0DDCF5AF059C0D9FF5AC0EA
:1015C600DAFF5850DF1A12006450D96EDA6A060E36
:1015D600D926DFB0F1EF0AF0F3EF0AF012EF0BF0C5
:1015E600CD826450D96EDA6A060ED926DFA2FEEFE6
:1015F6000AF000EF0BF003EF0BF0CD841FEF0BF0BA
:101606006450D96EDA6A060ED926DFB20DEF0BF0FA
:101616000FEF0BF01FEF0BF0CD941FEF0BF06450A4
:10162600D96EDA6A060ED926DFA01CEF0BF01EEF84
:101636000BF01FEF0BF0CD92120000018051D8A4E1
:1016460027EF0BF029EF0BF02BEF0BF056EF0BF01B
:1016560055C082F08051D96EDA6ADF50070B816F70
:1016660082518119F80B8119826F8051D96EDA6A1D
:10167600DF30E832E832070B816F814781478147C7
:1016860082518119C70B8119826F829D8051D96E53
:10169600DA6ADFAC02D0828F02D00001829F820E0E
:1016A6006C6E8CEC0BF012005B50D8A45DEF0BF067
:1016B6005FEF0BF061EF0BF08BEF0BF052C05DF0BC
:1016C6005B50D96EDA6ADF50070B5C6E5D505C18B2
:1016D600F80B5C185D6E5B50D96EDA6ADF30E83263
:1016E600E832070B5C6E5C465C465C465D505C18F7
:1016F600C70B5C185D6E5D9C5B50D96EDA6ADFAC19
:1017060002D05D8E01D05D9E5D0E566EA6EC0AF08F
:101716001200010E6E6E6C50D8B494EF0BF096EF7B
:101726000BF0A6EF0BF06C50D96EDA6ADF30E832B8
:10173600E832070B6D6E070E6D64A4EF0BF0A6EF93
:101746000BF0AAEF0BF0000E6E6EB9EF0BF06CC04B
:1017560064F044EC09F06CC064F06C50D96EDA6A3F
:10176600000EDFBE010E656ED7EC09F06E5012005A
:10177600E20EF66E170EF76E000EF86E00EE01F032
:1017860010EE2BF00900F5CFEEFFE550E150FAE13F
:1017960000EE2CF02A0EEE6AE806FDE171907192D9
:1017A600000147EF0CF09E907050CF6E6FC0CEFFD9
:1017B60030503110D8B4E2EF0BF0E4EF0BF0F0EF5D
:1017C6000BF002D8F0EF0BF00500FA6E3050FD6E0C
:1017D6003150FE6EFF6AFA5012001200800F810F20
:1017E600820F830F840F890F8A0F8B0F8C0F8D0F3B
:1017F600920F930F940F950F960F0101010101A609
:07180600180003DC0B0902CE
:10180E00566EF2805650D8A40FEF0CF011EF0CF07C
:10181E0013EF0CF013EF0CF01200566EF2805650D0
:10182E00D8A41CEF0CF01EEF0CF020EF0CF020EF04
:10183E000CF01200566EF2805650D8A429EF0CF020
:10184E002BEF0CF02DEF0CF02DEF0CF01200566E6E
:10185E00F2805650D8A436EF0CF038EF0CF03AEF79
:10186E000CF03AEF0CF0120064EC0CF0240E656EE6
:10187E005FEC0AF02B0E0001806F20EC0BF01200D3
:10188E003BEC0CF049EF0CF007EF00F0F294335004
:10189E00D76E32C0D6FF12002B0E5B6E57EC0BF0DC
:1018AE0012009E924EC0CCFF1200F0921200F090E9
:0C18BE001200F29212009E9C1200120018
:020000040030CA
:0E000000FF071F1FFF8185FF0FC00FE00F409D
:00000001FF
