:0400000007EF00F016
:0A00080048820BED08F00CEF09F040
:10100000003738392F3435362A3132332D23303DED
:051010002B2569000022
:101016000600F2A811EF08F013EF08F01CEF08F035
:10102600F2A218EF08F01AEF08F01CEF08F080ECB7
:1010360009F0F0A621EF08F023EF08F02CEF08F0F6
:10104600F0A028EF08F02AEF08F02CEF08F07EEC6D
:1010560009F0F0A831EF08F033EF08F03CEF08F0A4
:10106600F0A238EF08F03AEF08F03CEF08F07CEC1D
:1010760009F09DAC41EF08F043EF08F04CEF08F0A3
:101086009EAC48EF08F04AEF08F04CEF08F082EC0F
:1010960009F0F2AA51EF08F053EF08F05CEF08F000
:1010A600F2A458EF08F05AEF08F05CEF08F073EC82
:1010B60009F0F2A661EF08F063EF08F00AEF09F015
:1010C600F2A068EF08F06AEF08F00AEF09F081A8CD
:1010D6006FEF08F071EF08F07EEF08F04604D8A431
:1010E60077EF08F079EF08F07EEF08F0000E466E15
:1010F600000E60EC09F081B883EF08F085EF08F088
:1011060092EF08F04650D8A48BEF08F08DEF08F068
:1011160092EF08F0010E466E010E60EC09F081AA0E
:1011260097EF08F099EF08F0A6EF08F04504D8A469
:101136009FEF08F0A1EF08F0A6EF08F0000E456E4D
:10114600000E53EC09F081BAABEF08F0ADEF08F0F2
:10115600BAEF08F04550D8A4B3EF08F0B5EF08F0A1
:10116600BAEF08F0010E456E010E53EC09F081ACA2
:10117600BFEF08F0C1EF08F0CEEF08F04404D8A4A2
:10118600C7EF08F0C9EF08F0CEEF08F0000E446E86
:10119600000E46EC09F081BCD3EF08F0D5EF08F05D
:1011A600E2EF08F04450D8A4DBEF08F0DDEF08F0DA
:1011B600E2EF08F0010E446E010E46EC09F081AE36
:1011C600E7EF08F0E9EF08F0F6EF08F04304D8A4DB
:1011D600EFEF08F0F1EF08F0F6EF08F0000E436EBF
:1011E600000E39EC09F081BEFBEF08F0FDEF08F0C8
:1011F6000AEF09F04350D8A403EF09F005EF09F010
:101206000AEF09F0010E436E010E39EC09F048921F
:1012160011004E0EF66E120EF76E000EF86E00EE10
:1012260024F010EE23F00900F5CFEEFFE550E15073
:10123600FAE100EE01F0230EEE6AE806FDE14890C1
:10124600489200016DEF09F0800F810F820F830F26
:10125600840F890F8A0F8B0F8C0F8D0F920F930FB0
:0B126600940F950F960F01010101018C
:10127200476EF2804750D8A441EF09F043EF09F0DE
:1012820045EF09F045EF09F01200476EF280475032
:10129200D8A44EEF09F050EF09F052EF09F052EFE7
:1012A20009F01200476EF2804750D8A45BEF09F0B4
:1012B2005DEF09F05FEF09F05FEF09F01200476E92
:1012C200F2804750D8A468EF09F06AEF09F06CEF9A
:1012D20009F06CEF09F0120079EC09F06FEF09F0F8
:1012E20007EF00F0F2940250D76E01C0D6FF120051
:1012F20084EC09F01200F0921200F0901200F292C7
:0813020012009E9C1200120073
:020000040030CA
:0E000000FF071F1FFF8185FF0FC00FE00F409D
:00000001FF
