:0400000007EF00F016
:0A0008004F820BED08F01CEF09F029
:10100000003738392F3435362A3132332D23303DED
:051010002B2569000022
:101016000600F2A811EF08F013EF08F01CEF08F035
:10102600F2A218EF08F01AEF08F01CEF08F096ECA1
:1010360009F0F0A621EF08F023EF08F02CEF08F0F6
:10104600F0A028EF08F02AEF08F02CEF08F094EC57
:1010560009F0F0A831EF08F033EF08F03CEF08F0A4
:10106600F0A238EF08F03AEF08F03CEF08F092EC07
:1010760009F09DAC41EF08F043EF08F04CEF08F0A3
:101086009EAC48EF08F04AEF08F04CEF08F098ECF9
:1010960009F0F2AA51EF08F053EF08F05CEF08F000
:1010A600F2A458EF08F05AEF08F05CEF08F089EC6C
:1010B60009F09DA061EF08F063EF08F06CEF08F00F
:1010C6009EA068EF08F06AEF08F06CEF08F083EC7A
:1010D60009F0F2A671EF08F073EF08F01AEF09F0C5
:1010E600F2A078EF08F07AEF08F01AEF09F081A87D
:1010F6007FEF08F081EF08F08EEF08F04D04D8A4DA
:1011060087EF08F089EF08F08EEF08F0000E4D6EBD
:10111600000E70EC09F081B893EF08F095EF08F037
:10112600A2EF08F04D50D8A49BEF08F09DEF08F011
:10113600A2EF08F0010E4D6E010E70EC09F081AAC7
:10114600A7EF08F0A9EF08F0B6EF08F04C04D8A412
:10115600AFEF08F0B1EF08F0B6EF08F0000E4C6EF6
:10116600000E63EC09F081BABBEF08F0BDEF08F0A2
:10117600CAEF08F04C50D8A4C3EF08F0C5EF08F04A
:10118600CAEF08F0010E4C6E010E63EC09F081AC5B
:10119600CFEF08F0D1EF08F0DEEF08F04B04D8A44B
:1011A600D7EF08F0D9EF08F0DEEF08F0000E4B6E2F
:1011B600000E56EC09F081BCE3EF08F0E5EF08F00D
:1011C600F2EF08F04B50D8A4EBEF08F0EDEF08F083
:1011D600F2EF08F0010E4B6E010E56EC09F081AEEF
:1011E600F7EF08F0F9EF08F006EF09F04A04D8A483
:1011F600FFEF08F001EF09F006EF09F0000E4A6E66
:10120600000E49EC09F081BE0BEF09F00DEF09F075
:101216001AEF09F04A50D8A413EF09F015EF09F0B8
:101226001AEF09F0010E4A6E010E49EC09F04F92D1
:1012360011006E0EF66E120EF76E000EF86E00EED0
:101246002BF010EE23F00900F5CFEEFFE550E1504C
:10125600FAE100EE01F02A0EEE6AE806FDE14F9093
:101266004F9200017DEF09F0800F810F820F830FEF
:10127600840F890F8A0F8B0F8C0F8D0F920F930F90
:0B128600940F950F960F01010101016C
:101292004E6EF2804E50D8A451EF09F053EF09F090
:1012A20055EF09F055EF09F012004E6EF2804E50E4
:1012B200D8A45EEF09F060EF09F062EF09F062EF87
:1012C20009F012004E6EF2804E50D8A46BEF09F076
:1012D2006DEF09F06FEF09F06FEF09F012004E6E3B
:1012E200F2804E50D8A478EF09F07AEF09F07CEF43
:1012F20009F07CEF09F012008FEC09F07FEF09F0A2
:1013020007EF00F09E900450CF6E03C0CEFF120094
:10131200F2940850D76E07C0D6FF12009AEC09F07B
:101322001200F0921200F0901200F29212009E9CB3
:041332001200120093
:020000040030CA
:0E000000FF071F1FFF8185FF0FC00FE00F409D
:00000001FF
