:0400000007EF00F016
:0A0008005B820BED08F00CEF0AF02C
:10100000003738392F3435362A3132332D23303DED
:051010002B2569000022
:101016000600FACF51F0FBCF52F0F2A815EF08F018
:1010260017EF08F020EF08F0F2A21CEF08F01EEF11
:1010360008F020EF08F0A5EC0AF0F0A625EF08F07E
:1010460027EF08F030EF08F0F0A02CEF08F02EEFB5
:1010560008F030EF08F0A3EC0AF0F0A835EF08F03E
:1010660037EF08F040EF08F0F0A23CEF08F03EEF53
:1010760008F040EF08F0A1EC0AF09DAC45EF08F04F
:1010860047EF08F050EF08F09EAC4CEF08F04EEF3B
:1010960008F050EF08F0A7EC0AF0F2AA55EF08F0B6
:1010A60057EF08F060EF08F0F2A45CEF08F05EEF8F
:1010B60008F060EF08F027EC0AF0F2A665EF08F0FA
:1010C60067EF08F00EEF09F0F2A06CEF08F06EEF94
:1010D60008F00EEF09F081A873EF08F075EF08F03D
:1010E60082EF08F02304D8A47BEF08F07DEF08F028
:1010F60082EF08F0000E236E000E8DEC0AF081B828
:1011060087EF08F089EF08F096EF08F02350D8A48F
:101116008FEF08F091EF08F096EF08F0010E236EBE
:10112600010E8DEC0AF081AA9BEF08F09DEF08F006
:10113600AAEF08F02204D8A4A3EF08F0A5EF08F060
:10114600AAEF08F0000E226E000E80EC0AF081BABB
:10115600AFEF08F0B1EF08F0BEEF08F02250D8A4C8
:10116600B7EF08F0B9EF08F0BEEF08F0010E226EF7
:10117600010E80EC0AF081ACC3EF08F0C5EF08F071
:10118600D2EF08F02104D8A4CBEF08F0CDEF08F099
:10119600D2EF08F0000E216E000E73EC0AF081BC4F
:1011A600D7EF08F0D9EF08F0E6EF08F02150D8A401
:1011B600DFEF08F0E1EF08F0E6EF08F0010E216E30
:1011C600010E73EC0AF081AEEBEF08F0EDEF08F0DC
:1011D600FAEF08F02004D8A4F3EF08F0F5EF08F0D2
:1011E600FAEF08F0000E206E000E66EC0AF081BEE3
:1011F600FFEF08F001EF09F00EEF09F02050D8A438
:1012060007EF09F009EF09F00EEF09F0010E206E65
:10121600010E66EC0AF052C0FBFF51C0FAFF5B926A
:1012260011005550D8A41AEF09F01CEF09F01EEF73
:1012360009F055EF09F0D59E55C053F0EFEC09F0D3
:1012460055C053F056EC09F055C053F0D2EC09F0F6
:101256005550D96EDA6A040ED926DECF56F0DDCFA8
:1012660057F057C056F0576A5650D76E5550D96E3C
:10127600DA6A040ED926DF50D66E5550D96EDA6A70
:10128600040ED926DECF2BF0DDCF2CF0F28AF294B5
:101296005550D96EDA6ADECF2DF0DDCF2EF0F28E04
:1012A600F28CD58E12005350D96EDA6A060ED92604
:1012B600DFB460EF09F062EF09F081EF09F0D58A3B
:1012C6005350D96EDA6A060ED926DFA26DEF09F001
:1012D6006FEF09F072EF09F0D5988EEF09F05350D1
:1012E600D96EDA6A060ED926DFB27CEF09F07EEFF8
:1012F60009F08EEF09F0D5888EEF09F05350D96EBC
:10130600DA6A060ED926DFA48BEF09F08DEF09F015
:101316008EEF09F0D59A1200000E576E000E586E29
:101326005350D8A499EF09F09BEF09F09DEF09F00F
:10133600B2EF09F0D6CF57F0D7CF58F0575058C074
:1013460055F0566A55C056F0556A5526000E562277
:101356005450D96EDA6A55C0DEFF56C0DDFF120062
:101366009AEC0AF0240E536E4E0E546E8FEC09F072
:10137600240E536E000E556E000E546E57EC0AF096
:101386000B0E5A6E260E596E5E0EE82EFED7592E9D
:10139600FCD75A2EFAD7B5EF09F007EF00F05350F5
:1013A600D96EDA6A060ED926DFA6DCEF09F0DEEF83
:1013B60009F0E1EF09F0D58CEEEF09F05350D96E44
:1013C600DA6A060ED926DFB6EBEF09F0EDEF09F083
:1013D600EEEF09F0D59C12005350D96EDA6A060E6C
:1013E600D926DFA0F9EF09F0FBEF09F00AEF0AF0C2
:1013F600D5965350D96EDA6A030ED926DF50546E4D
:10140600D5505418F80B5418D56E0BEF0AF0D58644
:101416001200840EF66E140EF76E000EF86E00EED5
:1014260001F010EE2AF00900F5CFEEFFE550E1508D
:10143600FAE100EE2BF0250EEE6AE806FDE15B9080
:101446005B920001B3EF09F0F2942C50D76E2BC0DB
:10145600D6FF2D502E10D8B433EF0AF035EF0AF030
:1014660041EF0AF002D841EF0AF00500FA6E2D505E
:10147600FD6E2E50FE6EFF6AFA5012001200800FAB
:10148600810F820F830F840F890F8A0F8B0F8C0FAA
:101496008D0F920F930F940F950F960F0101010177
:1014A60001541500000000025350D8A45DEF0AF065
:1014B6005FEF0AF061EF0AF065EF0AF05550D76E5C
:1014C60054C0D6FF1200506EF2805050D8A46EEF72
:1014D6000AF070EF0AF072EF0AF072EF0AF01200EB
:1014E600506EF2805050D8A47BEF0AF07DEF0AF0E0
:1014F6007FEF0AF07FEF0AF01200506EF280505034
:10150600D8A488EF0AF08AEF0AF08CEF0AF08CEF85
:101516000AF01200506EF2805050D8A495EF0AF0EF
:1015260097EF0AF099EF0AF099EF0AF01200A9EC8A
:101536000AF0240E556E14EC09F01200F092120017
:10154600F0901200F29212009E9C120012001200FD
:020000040030CA
:0E000000FF071F1FFF8185FF0FC00FE00F409D
:00000001FF
