:0400000007EF00F016
:0A000800608289ED09F0FEEF12F0AE
:10100000003738392F3435362A3132332D23303DED
:101010002B202020202020202020202020202020C5
:1010200020202020200020202020202020202047B9
:101030004F202120202020200047616D65207374FF
:101040006172747320696E20256400506C6179654B
:1010500072206F6E6520776F6E202100506C617971
:1010600065722074776F20776F6E202100256900EC
:01107000007F
:101072005A0E0001DF6F9EC0E0F09FC0E1F0200E2B
:10108200E26FFBEC14F00001A26F0A0E9F19D8A4C4
:101092004DEF08F04FEF08F070EF08F0020E9E19C6
:1010A200D8A456EF08F058EF08F070EF08F05BECA8
:1010B20012F02CA05FEF08F062EF08F0010E63EF70
:1010C20008F0000E4A6E5BEC12F02CB06BEF08F0E9
:1010D2006EEF08F0010E6FEF08F0000E496E4A50F5
:1010E200D8A476EF08F078EF08F0E4EF08F00001FA
:1010F2009F2B140E9F19D8A481EF08F083EF08F0FC
:1011020092EF08F09E51A019D8A48AEF08F08CEF54
:1011120008F092EF08F0010E4A6E130E9F6F4CEF2B
:1011220009F0140E9F19D8A499EF08F09BEF08F06C
:101132004CEF09F09E51A019D8B4A2EF08F0A4EF29
:1011420008F04CEF09F05A0E2B6E020E2C6EBBEC1F
:1011520013F00001A26F5A0EDF6F020EE06F040E51
:10116200E16F110EE26FE251D8A4100EE36FDAECD8
:1011720014F00001A26F5A0EDF6F020EE06F040E30
:10118200E16F4B0EE26FE251D8A4100EE36FDAEC7E
:1011920014F00001A26F150E0001E66F4B0EE56F11
:1011A200BE0EE82EFED7E52FFCD7E62FFAD70000B9
:1011B2005A0E2B6E020E2C6EBBEC13F00001A26FC6
:1011C200FF004CEF09F000019F079F05D8A4ECEF48
:1011D20008F0EEEF08F0FDEF08F09E51A119D8A437
:1011E200F5EF08F0F7EF08F0FDEF08F0000E4A6E99
:1011F200020E9F6F4CEF09F09F05D8A403EF09F090
:1012020005EF09F04CEF09F09E51A119D8B40CEF8B
:1012120009F00EEF09F04CEF09F05A0E2B6E020E98
:101222002C6EBBEC13F00001A26F5A0EDF6F020EA0
:10123200E06F040EE16F110EE26FE251D8A4100EBE
:10124200E36FDAEC14F00001A26F5A0EDF6F020EA8
:10125200E06F040EE16F5C0EE26FE251D8A4100E53
:10126200E36FDAEC14F00001A26F150E0001E66FD5
:101272004B0EE56FBE0EE82EFED7E52FFCD7E62F0C
:10128200FAD700005A0E2B6E020E2C6EBBEC13F036
:101292000001A26FFF004950D8A452EF09F054EFA9
:1012A20009F063EF09F000019E2B040E9E19D8A4E9
:1012B2005DEF09F05FEF09F06FEF09F0010E496E83
:1012C2006FEF09F000019E079E05D8A46BEF09F0AD
:1012D2006DEF09F06FEF09F0000E496E5A0EDF6FE5
:1012E2009EC0E0F09FC0E1F06F0EE26FFBEC14F0E5
:1012F2000001A26F040E0001E66F0C0EE56F330EC3
:10130200E82EFED7E52FFCD7E62FFAD700D0120041
:101312000600FACF1AF0FBCF1BF0D9CF1CF0DACFC0
:101322001DF0F3CF1EF0F4CF1FF0F2A89BEF09F0EF
:101332009DEF09F0A6EF09F0F2A2A2EF09F0A4EFE7
:1013420009F0A6EF09F0FDEC15F0F0A6ABEF09F0FD
:10135200ADEF09F0B6EF09F0F0A0B2EF09F0B4EF8B
:1013620009F0B6EF09F0E6EC15F0F0A8BBEF09F0D2
:10137200BDEF09F0C6EF09F0F0A2C2EF09F0C4EF29
:1013820009F0C6EF09F0CFEC15F0F2A6CBEF09F0A9
:10139200CDEF09F074EF0AF0F2A0D2EF09F0D4EF2A
:1013A20009F074EF0AF081A8D9EF09F0DBEF09F038
:1013B200E8EF09F05904D8A4E1EF09F0E3EF09F0EE
:1013C200E8EF09F0000E596E000E9CEC16F081B8A1
:1013D200EDEF09F0EFEF09F0FCEF09F05950D8A456
:1013E200F5EF09F0F7EF09F0FCEF09F0010E596E85
:1013F200010E9CEC16F081AA01EF0AF003EF0AF04D
:1014020010EF0AF05804D8A409EF0AF00BEF0AF023
:1014120010EF0AF0000E586E000E8FEC16F081BA33
:1014220015EF0AF017EF0AF024EF0AF05850D8A48B
:101432001DEF0AF01FEF0AF024EF0AF0010E586EBA
:10144200010E8FEC16F081AC29EF0AF02BEF0AF0B7
:1014520038EF0AF05704D8A431EF0AF033EF0AF05C
:1014620038EF0AF0000E576E000E82EC16F081BCC7
:101472003DEF0AF03FEF0AF04CEF0AF05750D8A4C4
:1014820045EF0AF047EF0AF04CEF0AF0010E576EF3
:10149200010E82EC16F081AE51EF0AF053EF0AF022
:1014A20060EF0AF05604D8A459EF0AF05BEF0AF095
:1014B20060EF0AF0000E566E000E75EC16F081BE5B
:1014C20065EF0AF067EF0AF074EF0AF05650D8A4FD
:1014D2006DEF0AF06FEF0AF074EF0AF0010E566E2C
:1014E200010E75EC16F01FC0F4FF1EC0F3FF1DC005
:1014F200DAFF1CC0D9FF1BC0FBFF1AC0FAFF6092C3
:1015020011002B50D96EDA6ADFCFF6FF100EF76E9C
:10151200F86A0800F550250AD8A492EF0AF094EF71
:101522000AF052EF0BF02B50D96EDA6ADF2A000E66
:101532002F6E000E2E6E2EC048F0306831682B5090
:10154200D96EDA6ADF500001DA6FDAC0F6FF100EE8
:10155200F76EF86A0800F550640AD8B4B3EF0AF0DF
:10156200B5EF0AF0C4EF0AF0DAC0F6FF100EF76E1C
:10157200F86A0800F550690AD8A4C2EF0AF0C4EF6D
:101582000AF04CEF0BF02C50D96EDA6A020EDF260D
:10159200DF5CD96EDA6ADECFDBF0DECFDCF02B5017
:1015A200D96EDA6ADA29DF6E200EDF6FDCBFDCEF7C
:1015B2000AF0DFEF0AF0010EE0EF0AF0000ED96F39
:1015C200DF07DF51B90FD96EDA6ADBC020F0DCC069
:1015D20021F0000E236E0A0E226E4FEC0FF020C097
:1015E20026F021C027F0B5EC15F02650300FDF6E43
:1015F200DBC020F0DCC021F0000E236E0A0E226E4A
:1016020090EC0EF020C0DBF021C0DCF00001DB51D9
:10161200DC11D8B40FEF0BF011EF0BF019EF0BF058
:10162200DF51D8A417EF0BF019EF0BF0E1EF0AF03E
:10163200DF51D8B41FEF0BF021EF0BF041EF0BF0AD
:10164200D951D8B427EF0BF029EF0BF041EF0BF093
:10165200DF07DF51B90FD96EDA6A2D0EDF6E41EF67
:101662000BF0DF51B90FD96EDA6ADF502D6E2D50B3
:10167200206E216A2AC022F0F2EC0EF00001DF2B6C
:10168200200EDF19D8A448EF0BF04AEF0BF032EF2F
:101692000BF064EF0BF02B50D96EDA6ADF2A64EF9D
:1016A2000BF02B50D96EDA6ADFCFF6FF100EF76E11
:1016B200F86A0800F550206E216A2AC022F0F2EC86
:1016C2000EF04CEF0BF01200010E266E2050D8B433
:1016D2006DEF0BF06FEF0BF07FEF0BF02050D96E38
:1016E200DA6ADF30E832E832070B216E070E216436
:1016F2007DEF0BF07FEF0BF0D6EF0BF0000E266EB6
:10170200F6EF0BF02050D96EDA6ADF30E832E832B9
:10171200070B216E010E226E212A92EF0BF0D89058
:101722002236212E90EF0BF02250FF0A236E20501A
:10173200D96EDA6ADF50070B020DF350940FD96E9F
:10174200DA6ADECF24F0DDCF25F024C0D9FF25C030
:10175200DAFF2350DF16F6EF0BF02050D96EDA6A6B
:10176200DF30E832E832070B216E010E226E212AA9
:10177200BDEF0BF0D8902236212EBBEF0BF020509C
:10178200D96EDA6ADF50070B020DF350940FD96E4F
:10179200DA6ADECF23F0DDCF24F023C0D9FF24C0E4
:1017A200DAFF2250DF12F6EF0BF02050D96EDA6A20
:1017B200DFBCDEEF0BF0E1EF0BF0010EE2EF0BF01E
:1017C200000E216E226A2250000AD8B4EBEF0BF011
:1017D2007FEF0BF02150000AD8B483EF0BF0010A1F
:1017E200D8B4AEEF0BF07FEF0BF026501200010ED3
:1017F200236E2050D8A400EF0CF002EF0CF066EF3D
:101802000CF0000E236E84EF0CF02050D96EDA6AD1
:10181200020ED926DE04D8A411EF0CF013EF0CF05F
:1018220016EF0CF0F19C84EF0CF02050D96EDA6ABE
:10183200020ED926DF50D8A421EF0CF023EF0CF0D2
:1018420084EF0CF0F18C84EF0CF02050D96EDA6A40
:10185200020ED926DE04D8A431EF0CF033EF0CF0DF
:1018620036EF0CF0F19A84EF0CF02050D96EDA6A60
:10187200020ED926DF50D8A441EF0CF043EF0CF052
:1018820084EF0CF0F18A84EF0CF02050D96EDA6A02
:10189200020ED926DE04D8A451EF0CF053EF0CF05F
:1018A20056EF0CF0F19884EF0CF02050D96EDA6A02
:1018B200020ED926DF50D8A461EF0CF063EF0CF0D2
:1018C20084EF0CF0F18884EF0CF02050D96EDA6AC4
:1018D200030ED926DF50216E226A2250000AD8B4A4
:1018E20075EF0CF002EF0CF02150000AD8B406EFAD
:1018F2000CF0010AD8B426EF0CF0030AD8B446EF74
:101902000CF002EF0CF023501200010E276E205053
:10191200D8B48EEF0CF090EF0CF0A0EF0CF020504A
:10192200D96EDA6ADF30E832E832070B226E070E30
:1019320022649EEF0CF0A0EF0CF0F7EF0CF0000E1B
:10194200276E0CEF0DF02050D96EDA6ADF30E832E4
:10195200E832070B226E010E236E222AB3EF0CF03F
:10196200D8902336222EB1EF0CF02050D96EDA6ACD
:10197200DF50070B020DF3508A0FD96EDA6ADECF01
:1019820024F0DDCF25F024C0D9FF25C0DAFF235093
:10199200DF120CEF0DF02050D96EDA6ADF30E83238
:1019A200E832070B226E010E236E222ADBEF0CF0C7
:1019B200D8902336222ED9EF0CF02350FF0A246E42
:1019C2002050D96EDA6ADF50070B020DF3508A0FEE
:1019D200D96EDA6ADECF25F0DDCF26F025C0D9FF39
:1019E20026C0DAFF2450DF160CEF0DF02150226ED4
:1019F200236A2350000AD8B401EF0DF0A0EF0CF0D7
:101A02002250000AD8B4CCEF0CF0010AD8B4A4EFEB
:101A12000CF0A0EF0CF027501200010E086E0150DE
:101A2200D8B416EF0DF018EF0DF028EF0DF00150BD
:101A3200D96EDA6ADF30E832E832070B036E070E3E
:101A4200036426EF0DF028EF0DF07FEF0DF0000E8E
:101A5200086E94EF0DF00150D96EDA6ADF30E83289
:101A6200E832070B036E010E046E032A3BEF0DF002
:101A7200D8900436032E39EF0DF00150D96EDA6A90
:101A8200DF50070B020DF3508A0FD96EDA6ADECFF0
:101A920005F0DDCF06F005C0D9FF06C0DAFF04501D
:101AA200DF1294EF0DF00150D96EDA6ADF30E832BE
:101AB200E832070B036E010E046E032A63EF0DF08A
:101AC200D8900436032E61EF0DF00450FF0A056E24
:101AD2000150D96EDA6ADF50070B020DF3508A0FFC
:101AE200D96EDA6ADECF06F0DDCF07F006C0D9FF85
:101AF20007C0DAFF0550DF1694EF0DF00250036EB7
:101B0200046A0450000AD8B489EF0DF028EF0DF0F2
:101B12000350000AD8B454EF0DF0010AD8B42CEFE8
:101B22000DF028EF0DF008501200000E0101156FA4
:101B3200030E146F000E0001E46F010EE56F390E03
:101B4200E66F14C1E7F015C1E8F01CEC15F05A0E6F
:101B52000001DF6F040EE06F040EE16F000EE26F12
:101B6200010EE36FDAEC14F00001A26F0B0E00011C
:101B7200F76F260EF66F5D0EE82EFED7F62FFCD716
:101B8200F72FFAD700D05A0E0001DF6F040EE06F74
:101B9200040EE16F150EE26FE251D8A4100EE36F4E
:101BA200DAEC14F00001A26F01011407D8A01507A6
:101BB20015BFE6EF0DF0155106E11405D8B0E4EFBC
:101BC2000DF0E6EF0DF09BEF0DF05A0E0001DF6F06
:101BD200040EE06F010EE16F260EE26FE251D8A40F
:101BE200100EE36FDAEC14F00001A26F060E000192
:101BF200F76F130EF66FAD0EE82EFED7F62FFCD759
:101C0200F72FFAD700D05A0E0001DF6F040EE06FF3
:101C1200040EE16F150EE26FE251D8A4100EE36FCD
:101C2200DAEC14F00001A26F12000001D951D8A41D
:101C32001DEF0EF01FEF0EF023EF0EF0000EDC6F23
:101C42008EEF0EF0D929286E5EEC13F00001DC6FE6
:101C5200D9C028F05EEC13F00001DC6F000EDB6FE0
:101C6200D951DB25020F286E5EEC13F00001DB2B4D
:101C7200030EDB653FEF0EF041EF0EF031EF0EF099
:101C8200340E0001DA6FF10EE82EFED7DA2FFCD700
:101C920000D0D9C02BF0380E2C6EBBEC13F00D0E19
:101CA2000001DA6FFB0EE82EFED7DA2FFCD700D048
:101CB200D9C02BF0380E2C6EBBEC13F0640EE82E5C
:101CC200FED7D9C02BF0380E2C6EBBEC13F0D9C066
:101CD2002BF0010E2C6EBBEC13F0D9C02BF0020ED0
:101CE2002C6EBBEC13F0D9C02BF0060E2C6EBBECA5
:101CF20013F0D9C02BF00C0E2C6EBBEC13F0D9C034
:101D02002BF0280E2C6EBBEC13F0D9C02BF0800EFA
:101D12002C6EBBEC13F00001DC6FDC511200000EE4
:101D2200256E23BE99EF0EF097EF0EF09FEF0EF0A7
:101D3200226C231ED8B0232A010E256E21BEA6EFE7
:101D42000EF0A4EF0EF0ACEF0EF0206C211ED8B016
:101D5200212A010E251A000E276E000E266E225031
:101D62002310D8B4B7EF0EF0B9EF0EF0E1EF0EF09A
:101D7200010E246EC1EF0EF0D89022362336242AAB
:101D820023AEC6EF0EF0C8EF0EF0BDEF0EF0D89006
:101D9200263627362250205C23502158D8A0D4EF73
:101DA2000EF0D6EF0EF0DBEF0EF02250205E235045
:101DB200215A2680D89023322232242EC8EF0EF0E8
:101DC2002550D8B4E7EF0EF0E9EF0EF0EDEF0EF08C
:101DD200266C271ED8B0272A26C020F027C021F063
:101DE20012002250D8B4F8EF0EF0FAEF0EF002EF24
:101DF2000FF02250D8A400EF0FF002EF0FF007EF20
:101E02000FF02050B6EC16F04EEF0FF02250D96EC4
:101E1200DA6A0A0ED926DE50DE10D8B413EF0FF0BC
:101E220015EF0FF02EEF0FF02250D96EDA6A0A0E7C
:101E3200D9262250E16EE26A030EE126DE50E65C0C
:101E4200E650800A276EDE50800A2758D8B02CEF61
:101E52000FF02EEF0FF04EEF0FF02250D96EDA6A2C
:101E6200030ED926DECF23F0DDCF24F02250D96E27
:101E7200DA6ADECF25F0DDCF26F023502524D96E95
:101E820024502620DA6E20C0DFFF2250D96EDA6A93
:101E9200030ED926DE2A000EDD221200000E256E68
:101EA20021BE58EF0FF056EF0FF05EEF0FF0206CEF
:101EB200211ED8B0212A010E256E23BE65EF0FF038
:101EC20063EF0FF069EF0FF0226C231ED8B0232AC4
:101ED20022502310D8B470EF0FF072EF0FF096EF8C
:101EE2000FF0010E246E7AEF0FF0D89022362336CF
:101EF200242A23AE7FEF0FF081EF0FF076EF0FF081
:101F02002250205C23502158D8A08AEF0FF08CEF8A
:101F12000FF090EF0FF02250205E2350215AD890FC
:101F220023322232242E81EF0FF02550D8B49CEFB9
:101F32000FF09EEF0FF0A2EF0FF0206C211ED8B031
:101F4200212A20C020F021C021F01200010E000140
:101F5200DE6FDB07D9EF0FF0D9C02BF0DB51800F1A
:101F62002C6EBBEC13F00001DE6FF6EF0FF0D9C060
:101F72002BF0DB51C00F2C6EBBEC13F00001DE6FB7
:101F8200F6EF0FF0D9C02BF0DB51940F2C6EBBECA7
:101F920013F00001DE6FF6EF0FF0D9C02BF0DB512A
:101FA200D40F2C6EBBEC13F00001DE6FF6EF0FF0D6
:101FB200DA51DC6FDD6BDD51000AD8B4E3EF0FF0CC
:101FC200F6EF0FF0DC51010AD8B4ADEF0FF0030ABF
:101FD200D8B4B8EF0FF0010AD8B4C3EF0FF0070A74
:101FE200D8B4CEEF0FF0F6EF0FF0DE51120023500F
:101FF200D8A4FEEF0FF000EF10F028EF10F0000E63
:10200200266E46EF10F02350D96EDA6ADECF20F04A
:10201200DDCF21F03EEC16F0266E46EF10F0235095
:10202200D96EDA6ADECF20F0DDCF21F029EC16F08E
:10203200266E46EF10F02350D96EDA6ADECF20F01A
:10204200DDCF21F014EC16F0266E46EF10F023508F
:10205200D96EDA6A030ED926DF50246E256A25501E
:10206200000AD8B437EF10F000EF10F02450000A45
:10207200D8B404EF10F0010AD8B410EF10F0030A3C
:10208200D8B41CEF10F000EF10F02650120067ECED
:1020920016F05A0E2B6E010E2C6EBBEC13F00001E3
:1020A200A26F5A0EDF6FA1C0E0F0010EE16F7C0E4D
:1020B200E26FFBEC14F00001A26F5A0EDF6FA0C0BA
:1020C200E0F0140EE16F7C0EE26FFBEC14F0000105
:1020D200A26F5A0EDF6F9EC0E0F09FC0E1F06F0E5C
:1020E200E26FFBEC14F00001A26FAF0E286EA0C0ED
:1020F20029F0A4EC11F00001A26FB40E286EA1C069
:1021020029F0A4EC11F00001A26FA90E2D6E2FECA4
:1021120013F00001A26FA30E2D6E2FEC13F000013D
:10212200A26F96EC0DF01200010E146E1106C2EFB2
:1021320010F00FC00CF01150800F0D6EE9EC13F08F
:10214200146EDFEF10F00FC00CF01150C00F0D6EC7
:10215200E9EC13F0146EDFEF10F00FC00CF0115029
:10216200940F0D6EE9EC13F0146EDFEF10F00FC058
:102172000CF01150D40F0D6EE9EC13F0146EDFEF7A
:1021820010F01050126E136A1350000AD8B4CCEF3C
:1021920010F0DFEF10F01250010AD8B49AEF10F0ED
:1021A200030AD8B4A4EF10F0010AD8B4AEEF10F0CD
:1021B200070AD8B4B8EF10F0DFEF10F01450120095
:1021C200010E0001DC6FD951D8A4EAEF10F0ECEF58
:1021D20010F00AEF11F0000EDC6F23EF11F0D9C0FE
:1021E2002BF0DAC0F6FFDBC0F7FF000EF86E0F0E21
:1021F200F76403D00800F55005D0F6CFE9FFF7CF1A
:10220200EAFFEF502C6E8DEC13F00001DC6FDA4B1D
:10221200DB2BDAC0F6FFDBC0F7FF000EF86E0F0E05
:10222200F76403D00800F55005D0F6CFE9FFF7CFE9
:10223200EAFFEF500009D8A421EF11F023EF11F0CB
:10224200F0EF10F00001DC5112005A0E156EA1C021
:1022520016F0010E176E200E186E7AEC15F00001C2
:10226200A26FA151D8B438EF11F03AEF11F045EF57
:1022720011F0040EA16140EF11F042EF11F045EFB1
:1022820011F0A12B50EF11F0040EA119D8A44CEFBC
:1022920011F04EEF11F050EF11F0010EA16FB40EDC
:1022A200096EA1C00AF01EEC12F00001A26F5A0ED4
:1022B200156EA1C016F0010E176E7C0E186E7AEC28
:1022C20015F00001A26F12005A0E156EA0C016F092
:1022D200140E176E200E186E7AEC15F00001A26F24
:1022E200A051D8B477EF11F079EF11F084EF11F02B
:1022F200040EA0617FEF11F081EF11F084EF11F075
:10230200A02B8FEF11F0040EA019D8A48BEF11F0BF
:102312008DEF11F08FEF11F0010EA06FAF0E096E6D
:10232200A0C00AF01EEC12F00001A26F5A0E156E48
:10233200A0C016F0140E176E7C0E186E7AEC15F013
:102342000001A26F12002850D8B4AAEF11F0ACEF2E
:1023520011F0B4EF11F0090E2964B2EF11F0B4EFED
:1023620011F0B8EF11F0000E2A6EDFEF11F028C065
:1023720020F02950010B216E86EC0CF02A6E2828E1
:10238200206ED8902930010B216E86EC0CF02A6E5B
:102392002850020F206E2940E8423F0B010B216EAC
:1023A20086EC0CF02A6E2850030F206E2938E8467E
:1023B2001F0B010B216E86EC0CF02A6E2A501200C4
:1023C200010E236E2050D8A4E9EF11F0EBEF11F0CB
:1023D200FEEF11F0000E236E1CEF12F0F28EF28C63
:1023E200F2881CEF12F0F28EF28CF0861CEF12F0E3
:1023F200F28EF28CF0881CEF12F02050D96EDA6A5D
:10240200030ED926DF50216E226A2250000AD8B468
:102412000DEF12F0EBEF11F02150000AD8B4EFEFFC
:1024220011F0010AD8B4F4EF11F0030AD8B4F9EFAD
:1024320011F0EBEF11F0235012000950D8B424EF41
:1024420012F026EF12F02EEF12F0090E0A642CEFB2
:1024520012F02EEF12F032EF12F0000E0B6E59EF67
:1024620012F009C001F00A50010B026E0EEC0DF0E1
:102472000B6E0928016ED8900A30010B026E0EEC29
:102482000DF00B6E0950020F016E0A40E8423F0B3D
:10249200010B026E0EEC0DF00B6E0950030F016E74
:1024A2000A38E8461F0B010B026E0EEC0DF00B6EA4
:1024B2000B50120052C020F053C021F054C022F041
:1024C20055C023F02D0E246E7F0E256E950E266EBE
:1024D2004C0E276EC9EC12F0010E2024526E000E33
:1024E2002120536E000E2220546E000E2320556EC2
:1024F20052C0D9F053C0DAF054C0DBF055C0DCF062
:10250200120E8AEF12F00001D890DC33DB33DA339B
:10251200D933E82E84EF12F0D9C02CF0DAC02DF0B6
:102522001200010E236E2050D8A49AEF12F09CEFF5
:1025320012F0A9EF12F0000E236EC7EF12F0F2981C
:10254200C7EF12F0F096C7EF12F0F098C7EF12F053
:102552002050D96EDA6A030ED926DF50216E226A24
:102562002250000AD8B4B8EF12F09CEF12F02150BA
:10257200000AD8B4A0EF12F0010AD8B4A3EF12F007
:10258200030AD8B4A6EF12F09CEF12F02350120007
:10259200000E286E000E296E000E2A6E000E2B6EA3
:1025A20020A0D6EF12F0D8EF12F0E0EF12F0245094
:1025B20028262550292226502A2227502B22D8901D
:1025C2002436253626362736D89023322232213237
:1025D20020322050211022102310D8A4F3EF12F041
:1025E200F5EF12F0D1EF12F028C020F029C021F04F
:1025F2002AC022F02BC023F01200300EF66E2B0EF2
:10260200F76E000EF86E00EE80F010EE39F0090061
:10261200F5CFEEFFE550E150FAE1620EF66E2D0EB7
:10262200F76E000EF86E00EE56F010EE0AF009009A
:10263200F5CFEEFFE550E150FAE100EEB9F0200EE1
:10264200EE6AE806FDE100EE2EF0280EEE6AE806DC
:10265200FDE1609060920001A9EF16F0010E000109
:10266200D96F2D50D8A438EF13F03AEF13F03EEFA4
:1026720013F0000ED96F5CEF13F02DC020F092EC36
:1026820012F00001D9132DC020F0F8EC0BF000017C
:10269200D9132DC02BF053EC16F00001D9132DC025
:1026A20023F0F8EC0FF00001D9132DC020F0E1EC7B
:1026B20011F00001D913D9511200010E2A6E2850CF
:1026C200D8B466EF13F068EF13F078EF13F02850E8
:1026D200D96EDA6ADF30E832E832070B296E070E6C
:1026E200296476EF13F078EF13F07CEF13F0000E0D
:1026F2002A6E8BEF13F028C020F065EC0BF028C097
:1027020020F02850D96EDA6A000EDFBE010E216E6B
:1027120086EC0CF02A5012002B50D8A493EF13F041
:1027220095EF13F099EF13F0000E2D6EB9EF13F041
:102732002BC020F0010E216E86EC0CF02D6E2BC00A
:1027420028F02C380F0B296E45EC14F02D6E2BC09F
:1027520028F03CEC15F02D6E2BC028F02CC029F08F
:1027620045EC14F02D6E2BC028F03CEC15F02D6ECC
:102772002D5012002B50D8A4C1EF13F0C3EF13F069
:10278200C7EF13F0000E2D6EE7EF13F02BC020F011
:10279200000E216E86EC0CF02D6E2BC028F02C382A
:1027A2000F0B296E45EC14F02D6E2BC028F03CEC7B
:1027B20015F02D6E2BC028F02CC029F045EC14F03A
:1027C2002D6E2BC028F03CEC15F02D6E2D50120012
:1027D2000C50D8A4EFEF13F0F1EF13F0F5EF13F074
:1027E200000E0E6E15EF14F00CC001F0000E026E1A
:1027F2000EEC0DF00E6E0CC009F00D380F0B0A6EC8
:102802006DEC14F00E6E0CC009F05BEC15F00E6E60
:102812000CC009F00DC00AF06DEC14F00E6E0CC085
:1028220009F05BEC15F00E6E0E5012000C50D8A49D
:102832001DEF14F01FEF14F023EF14F0000E0E6ED4
:1028420043EF14F00CC001F0010E026E0EEC0DF01D
:102852000E6E0CC009F00D380F0B0A6E6DEC14F001
:102862000E6E0CC009F05BEC15F00E6E0CC009F098
:102872000DC00AF06DEC14F00E6E0CC009F05BECAA
:1028820015F00E6E0E5012002850020F206E2950C5
:10289200010B216E86EC0CF02850030F206ED890AD
:1028A2002930010B216E86EC0CF02850040F206EAB
:1028B2002940E8423F0B010B216E86EC0CF02850B8
:1028C200050F206E2938E8461F0B010B216E86EC9E
:1028D2000CF02A6E2A5012000950020F016E0A50A3
:1028E200010B026E0EEC0DF00950030F016ED89031
:1028F2000A30010B026E0EEC0DF00950040F016E4E
:102902000A40E8423F0B010B026E0EEC0DF009503B
:10291200050F016E0A38E8461F0B010B026E0EEC22
:102922000DF00B6E0B5012002B50D8A49BEF14F03D
:102932009DEF14F0A1EF14F0000E2C6EB7EF14F01F
:102942002BC028F05EEC13F02C6E2B28286E5EEC68
:1029520013F02C6E2B50020F286E5EEC13F02C6ECF
:102962002B50030F286E5EEC13F02C6E2C501200CD
:10297200E1C0E3F0C5EF14F0E0C02AF0E30E2B6EE5
:10298200E2C02CF082EC0AF0E3C0F6FF100EF76E04
:10299200F86A0800F5500009D8A4D2EF14F0D4EF79
:1029A20014F0BDEF14F0000E0001E16F000EE06FB5
:1029B20012000001DF51D8A4E1EF14F0E3EF14F0AC
:1029C200E7EF14F0000EE46FF9EF14F0DFC0D9F076
:1029D200E0C0DAF0E1C0DBF0A7EC0FF0DFC0D9F025
:1029E200E2C0DAF0E3C0DBF0E1EC10F00001E46FEA
:1029F200E45112000001DF51D8A402EF15F004EFF8
:102A020015F008EF15F0000EE36F1AEF15F0DFC0B6
:102A1200D9F0E0C0DAF0E1C0DBF0A7EC0FF0000182
:102A2200E36FDFC02BF0E2C02CF08DEC13F000015D
:102A3200E36FE3511200E70E0001E96FE4C0EAF030
:102A4200E5C0EBF0000EEE6F000EED6F000EF56FBD
:102A5200000EF46FEA0EE06FE6C0E1F0E90EE26FFD
:102A6200B9EC14F00001ED51E425D96EEE51E521E7
:102A7200DA6EDF6A12002850D8A442EF15F044EF54
:102A820015F048EF15F0000E296E59EF15F02828C1
:102A9200206E010E216E86EC0CF0030EE82EFED79E
:102AA20000002828206E000E216E86EC0CF0296EA4
:102AB200295012000950D8A461EF15F063EF15F008
:102AC20067EF15F0000E0A6E78EF15F00928016E17
:102AD200010E026E0EEC0DF0030EE82EFED7000082
:102AE2000928016E000E026E0EEC0DF00A6E0A50FD
:102AF20012001550D8A480EF15F082EF15F086EF82
:102B020015F0000E196E96EF15F015C00FF016C0F5
:102B120010F017C011F095EC10F0196E15C00CF002
:102B220018C00DF017EC14F0196E19501200800F36
:102B3200810F820F830F840F890F8A0F8B0F8C0FE7
:102B42008D0F920F930F940F950F960F020A0202A8
:102B520001CA22000101494C2200000141222A320D
:072B62003A01020A121A01F8
:102B6A0027BEBAEF15F0BCEF15F0C2EF15F026C07C
:102B7A0026F027C027F0CEEF15F026C028F027C090
:102B8A0029F0281E291E284A292A28C026F029C0E9
:102B9A0027F01200F09242504310D8B4D7EF15F044
:102BAA00D9EF15F0E5EF15F002D8E5EF15F00500BD
:102BBA00FA6E4250FD6E4350FE6EFF6AFA501200E2
:102BCA001200F09044504510D8B4EEEF15F0F0EF33
:102BDA0015F0FCEF15F002D8FCEF15F00500FA6EBF
:102BEA004450FD6E4550FE6EFF6AFA501200120004
:102BFA00F29246504710D8B405EF16F007EF16F0D8
:102C0A0013EF16F002D813EF16F00500FA6E4650CD
:102C1A00FD6E4750FE6EFF6AFA5012001200010E56
:102C2A00226E20502110D8A41DEF16F01FEF16F0C7
:102C3A0023EF16F0000E226E27EF16F020C042F0A6
:102C4A0021C043F022501200010E226E20502110A2
:102C5A00D8A432EF16F034EF16F038EF16F0000E63
:102C6A00226E3CEF16F020C044F021C045F02250FD
:102C7A001200010E226E20502110D8A447EF16F040
:102C8A0049EF16F04DEF16F0000E226E51EF16F0D6
:102C9A0020C046F021C047F0225012002B50D8A481
:102CAA0059EF16F05BEF16F05FEF16F0000E2C6E80
:102CBA0065EF16F02B50050F286E5EEC13F02C6EA4
:102CCA002C5012005A0E0001D96F16EC0EF0B40EF9
:102CDA002B6E95EC14F0AF0E2B6E95EC14F01200DF
:102CEA00016EF2800150D8A47DEF16F07FEF16F046
:102CFA0081EF16F081EF16F01200016EF28001509A
:102D0A00D8A48AEF16F08CEF16F08EEF16F08EEF3D
:102D1A0016F01200016EF2800150D8A497EF16F057
:102D2A0099EF16F09BEF16F09BEF16F01200016E6A
:102D3A00F2800150D8A4A4EF16F0A6EF16F0A8EF7F
:102D4A0016F0A8EF16F0120048EC10F039EC08F073
:102D5A00ABEF16F007EF00F0010101010313232B7B
:042D6A00333B1200E5
:020000040030CA
:0E000000FF02091EFF8181FF0FC00FE00F40BD
:00000001FF
