:0400000007EF00F016
:0A0008006B820BED08F0C2EF0CF064
:10100000003738392F3435362A3132332D23303DED
:051010002B2569000022
:101016000600FACF39F0FBCF3AF0D9CF3BF0DACF62
:101026003CF0F3CF3DF0F4CF3EF0F2A81DEF08F010
:101036001FEF08F028EF08F0F2A224EF08F026EFE1
:1010460008F028EF08F030EC0DF0F0A62DEF08F0D0
:101056002FEF08F038EF08F0F0A034EF08F036EF85
:1010660008F038EF08F02EEC0DF0F0A83DEF08F090
:101076003FEF08F048EF08F0F0A244EF08F046EF23
:1010860008F048EF08F02CEC0DF0F2A64DEF08F052
:101096004FEF08F0F6EF08F0F2A054EF08F056EF25
:1010A60008F0F6EF08F081A85BEF08F05DEF08F0B6
:1010B6006AEF08F02304D8A463EF08F065EF08F0A0
:1010C6006AEF08F0000E236E000EA0EC0CF081B85B
:1010D6006FEF08F071EF08F07EEF08F02350D8A408
:1010E60077EF08F079EF08F07EEF08F0010E236E37
:1010F600010EA0EC0CF081AA83EF08F085EF08F052
:1011060092EF08F02204D8A48BEF08F08DEF08F0D8
:1011160092EF08F0000E226E000E7EEC0CF081BA03
:1011260097EF08F099EF08F0A6EF08F02250D8A440
:101136009FEF08F0A1EF08F0A6EF08F0010E226E6F
:10114600010E7EEC0CF081ACABEF08F0ADEF08F0D1
:10115600BAEF08F02104D8A4B3EF08F0B5EF08F011
:10116600BAEF08F0000E216E000E5CEC0CF081BCAC
:10117600BFEF08F0C1EF08F0CEEF08F02150D8A479
:10118600C7EF08F0C9EF08F0CEEF08F0010E216EA8
:10119600010E5CEC0CF081AED3EF08F0D5EF08F051
:1011A600E2EF08F02004D8A4DBEF08F0DDEF08F04A
:1011B600E2EF08F0000E206E000E3AEC0CF081BE55
:1011C600E7EF08F0E9EF08F0F6EF08F02050D8A4B2
:1011D600EFEF08F0F1EF08F0F6EF08F0010E206EE1
:1011E600010E3AEC0CF03EC0F4FF3DC0F3FF3CC0EC
:1011F600DAFF3BC0D9FF3AC0FBFF39C0FAFF6B925A
:101206001100010E456E3F50D8B40CEF09F00EEFF9
:1012160009F01EEF09F03F50D96EDA6ADF30E83286
:10122600E832070B406E070E40641CEF09F01EEF14
:1012360009F075EF09F0000E456E95EF09F03F5085
:10124600D96EDA6ADF30E832E832070B406E010EFB
:10125600416E402A31EF09F0D8904136402E2FEFEB
:1012660009F04150FF0A426E3F50D96EDA6ADF50EC
:10127600070B020DF350150FD96EDA6ADECF43F075
:10128600DDCF44F043C0D9FF44C0DAFF4250DF1639
:1012960095EF09F03F50D96EDA6ADF30E832E8326E
:1012A600070B406E010E416E402A5CEF09F0D890A4
:1012B6004136402E5AEF09F03F50D96EDA6ADF50B8
:1012C600070B020DF350150FD96EDA6ADECF42F026
:1012D600DDCF43F042C0D9FF43C0DAFF4150DF12F1
:1012E60095EF09F03F50D96EDA6ADFBC7DEF09F061
:1012F60080EF09F0010E81EF09F0000E406E416AA1
:101306004150000AD8B48AEF09F01EEF09F04050A8
:10131600000AD8B422EF09F0010AD8B44DEF09F05B
:101326001EEF09F0455012004650D8A49DEF09F073
:101336009FEF09F0A3EF09F0000E496E21EF0AF0C6
:10134600F296F280F28EF28C4650050F3F6E04EC58
:1013560009F0496EFBEF09F04650D96EDA6ADECF26
:101366005CF0DDCF5DF04650D96EDA6A020ED92602
:10137600DECF5AF0DDCF5BF020EF0AF04650D96E93
:10138600DA6ADECF58F0DDCF59F04650D96EDA6A08
:10139600020ED926DECF56F0DDCF57F020EF0AF049
:1013A6004650D96EDA6ADECF54F0DDCF55F046509E
:1013B600D96EDA6A020ED926DECF52F0DDCF53F0AF
:1013C60020EF0AF04650D96EDA6ADECF50F0DDCF54
:1013D60051F04650D96EDA6A020ED926DECF4EF0AB
:1013E600DDCF4FF020EF0AF0000E496E20EF0AF035
:1013F6004650D96EDA6A050ED926DF30E832E83271
:10140600070B476E486A4850000AD8B40DEF0AF039
:10141600F7EF09F04750040AD8B4AFEF09F0010A14
:10142600D8B4C1EF09F0030AD8B4D3EF09F0010A22
:10143600D8B4E5EF09F0F7EF09F0F286495012004B
:10144600010E466E3F50D8B42BEF0AF02DEF0AF08E
:101456003DEF0AF03F50D96EDA6ADF30E832E83203
:10146600070B416E070E41643BEF0AF03DEF0AF0B1
:1014760094EF0AF0000E466EA9EF0AF03F50D96EBF
:10148600DA6ADF30E832E832070B416E010E426E4F
:10149600412A50EF0AF0D8904236412E4EEF0AF01C
:1014A6003F50D96EDA6ADF50070B020DF3500B0F6F
:1014B600D96EDA6ADECF43F0DDCF44F043C0D9FF00
:1014C60044C0DAFF4250DF12A9EF0AF03F50D96E4E
:1014D600DA6ADF30E832E832070B416E010E426EFF
:1014E600412A78EF0AF0D8904236412E76EF0AF07C
:1014F6004250FF0A436E3F50D96EDA6ADF50070B3F
:10150600020DF3500B0FD96EDA6ADECF44F0DDCF51
:1015160045F044C0D9FF45C0DAFF4350DF16A9EFB6
:101526000AF04050416E426A4250000AD8B49EEF1B
:101536000AF03DEF0AF04150000AD8B469EF0AF00C
:10154600010AD8B441EF0AF03DEF0AF04650120006
:10155600010E496E000E4A6E4650D8B4B5EF0AF039
:10156600B7EF0AF0BFEF0AF04750D8A4BDEF0AF074
:10157600BFEF0AF0C3EF0AF0000E496E02EF0BF060
:1015860046C03FF04A0E406E04EC0BF04650D96E52
:10159600DA6A010ED926DF50D8A4D4EF0AF0D6EFC6
:1015A6000AF0EBEF0AF04A50D8A4DCEF0AF0DEEFBF
:1015B6000AF0E5EF0AF04750D96EDA6A010EDF6EDF
:1015C60002EF0BF04750D96EDA6ADF6A02EF0BF0D2
:1015D6004650D96EDA6A010ED926DE04D8A4F6EF93
:1015E6000AF0F8EF0AF002EF0BF04A04D8A4FEEF77
:1015F6000AF000EF0BF0E5EF0AF0DEEF0AF04950D3
:101606001200010E456E3F50D8B40CEF0BF00EEFF2
:101616000BF026EF0BF04050D8B414EF0BF016EF9A
:101626000BF026EF0BF03F50D96EDA6ADF30E83266
:10163600E832070B416E070E416424EF0BF026EFEC
:101646000BF02AEF0BF0000E456E54EF0BF04050F6
:10165600D96EDA6A3F50E16EE26AE730E832E83284
:10166600070B416E3F50E16EE26AE750070B020D31
:10167600F350010FE16EE26AE6CF42F0E5CF43F0A8
:1016860042C0E1FF43C0E2FFE750446E412A4EEFFD
:101696000BF0D8904432412E4CEF0BF04450010B26
:1016A600DF6E455012002F50D8B45CEF0BF05EEFA2
:1016B6000BF06EEF0BF02F50D96EDA6ADF30E8329E
:1016C600E832070B306E070E30646CEF0BF06EEFEE
:1016D6000BF070EF0BF096EF0BF02F50D96EDA6A25
:1016E600DF30E832E832070B306E010E316E302AF9
:1016F6007FEF0BF0D8903136302E7DEF0BF02F5068
:10170600D96EDA6ADF50070B020DF3500B0FD96E54
:10171600DA6ADECF32F0DDCF33F032C0D9FF33C024
:10172600DAFF3150DF1A1200010E4C6E4A50D8A46F
:101736009FEF0BF0A1EF0BF0A5EF0BF0000E4C6E38
:10174600CFEF0BF06AC04DF04A50D96EDA6ADF501F
:10175600070B4B6E4D504B18F80B4B184D6E4A50FD
:10176600D96EDA6ADF30E832E832070B4B6E4B4649
:101776004B464B464D504B18C70B4B184D6E4D9C68
:101786004A50D96EDA6ADFAC02D04D8E01D04D9E3A
:101796004D0E476E0BEC0CF04C501200010E366EDF
:1017A6003450D8A4D9EF0BF0DBEF0BF0DFEF0BF0E2
:1017B600000E366E09EF0CF067C037F03450D96E64
:1017C600DA6ADF50070B356E37503518F80B3518C7
:1017D600376E3450D96EDA6ADF30E832E832070BFA
:1017E600356E35463546354637503518C70B3518EC
:1017F600376E379C3450D96EDA6ADFAC02D0378E3A
:1018060001D0379E370E2F6E56EC0BF03650120075
:10181600010E496E4750D8B413EF0CF015EF0CF0DB
:1018260025EF0CF04750D96EDA6ADF30E832E8323D
:10183600070B486E070E486423EF0CF025EF0CF0FB
:1018460029EF0CF0000E496E38EF0CF047C03FF060
:1018560004EC09F047C03FF04750D96EDA6A000E33
:10186600DFBE010E406E23EC0AF049501200386EBE
:10187600F2803850D8A442EF0CF044EF0CF05BEF46
:101886000CF050505110D8B44BEF0CF04DEF0CF05B
:101896005BEF0CF002D859EF0CF00500FA6E5050D1
:1018A600FD6E5150FE6EFF6AFA5012005BEF0CF0AF
:1018B6001200386EF2803850D8A464EF0CF066EF50
:1018C6000CF07DEF0CF054505510D8B46DEF0CF0C1
:1018D6006FEF0CF07DEF0CF002D87BEF0CF00500FB
:1018E600FA6E5450FD6E5550FE6EFF6AFA501200A5
:1018F6007DEF0CF01200386EF2803850D8A486EFD7
:101906000CF088EF0CF09FEF0CF058505910D8B43B
:101916008FEF0CF091EF0CF09FEF0CF002D89DEFDB
:101926000CF00500FA6E5850FD6E5950FE6EFF6AB7
:10193600FA5012009FEF0CF01200386EF280385009
:10194600D8A4A8EF0CF0AAEF0CF0C1EF0CF05C5095
:101956005D10D8B4B1EF0CF0B3EF0CF0C1EF0CF0A2
:1019660002D8BFEF0CF00500FA6E5C50FD6E5D50BC
:10197600FE6EFF6AFA501200C1EF0CF01200BA0EAA
:10198600F66E190EF76E000EF86E00EE01F010EE10
:101996002EF00900F5CFEEFFE550E150FAE100EE3A
:1019A6004EF01D0EEE6AE806FDE16B906B920001AB
:1019B60019EF0DF0800F810F820F830F840F890FAF
:1019C6008A0F8B0F8C0F8D0F920F930F940F950F1D
:1019D600960F01010101014C1A0000017942000134
:1019E600010A4A50D8A4FAEF0CF0FCEF0CF000EF15
:1019F6000DF0000E4B6E05EF0DF04AC047F00BECF4
:101A06000CF04B6E4B50120032EC0DF02E0E4A6E5F
:101A160097EC0BF01F6E240E466E97EC09F01F6EC6
:101A26002A0E4A6EF4EC0CF01F6E120007EC0DF055
:101A36002A0E466E2D0E476EABEC0AF01F6E1BEF9C
:101A46000DF007EF00F02E0E346ED1EC0BF01F6E8A
:101A56001200F0921200F0901200F29212001200A0
:020000040030CA
:0E000000FF02091EFF8181FF0FC00FE00F40BD
:00000001FF
