:0400000007EF00F016
:0A00080042820BED08F0ECEF08F067
:10100000003738392F3435362A3132332D23303DED
:051010002B2569000022
:101016000600F2A811EF08F013EF08F01CEF08F035
:10102600F2A218EF08F01AEF08F01CEF08F05AECDD
:1010360009F0F0A621EF08F023EF08F02CEF08F0F6
:10104600F0A028EF08F02AEF08F02CEF08F058EC93
:1010560009F0F0A831EF08F033EF08F03CEF08F0A4
:10106600F0A238EF08F03AEF08F03CEF08F056EC43
:1010760009F0F2A641EF08F043EF08F0EAEF08F0B6
:10108600F2A048EF08F04AEF08F0EAEF08F081A86E
:101096004FEF08F051EF08F05EEF08F02304D8A4F4
:1010A60057EF08F059EF08F05EEF08F0000E236ED8
:1010B600000E40EC09F081B863EF08F065EF08F028
:1010C60072EF08F02350D8A46BEF08F06DEF08F02C
:1010D60072EF08F0010E236E010E40EC09F081AAB2
:1010E60077EF08F079EF08F086EF08F02204D8A42D
:1010F6007FEF08F081EF08F086EF08F0000E226E11
:10110600000E33EC09F081BA8BEF08F08DEF08F092
:101116009AEF08F02250D8A493EF08F095EF08F064
:101126009AEF08F0010E226E010E33EC09F081AC45
:101136009FEF08F0A1EF08F0AEEF08F02104D8A465
:10114600A7EF08F0A9EF08F0AEEF08F0000E216E49
:10115600000E26EC09F081BCB3EF08F0B5EF08F0FD
:10116600C2EF08F02150D8A4BBEF08F0BDEF08F09D
:10117600C2EF08F0010E216E010E26EC09F081AED9
:10118600C7EF08F0C9EF08F0D6EF08F02004D8A49E
:10119600CFEF08F0D1EF08F0D6EF08F0000E206E82
:1011A600000E19EC09F081BEDBEF08F0DDEF08F068
:1011B600EAEF08F02050D8A4E3EF08F0E5EF08F0D6
:1011C600EAEF08F0010E206E010E19EC09F04292CA
:1011D60011000E0EF66E120EF76E000EF86E00EE91
:1011E60001F010EE23F00900F5CFEEFFE550E150D7
:1011F600FAE100EE24F01D0EEE6AE806FDE14290EB
:10120600429200014DEF09F0800F810F820F830F8C
:10121600840F890F8A0F8B0F8C0F8D0F920F930FF0
:0B122600940F950F960F0101010101CC
:10123200416EF2804150D8A421EF09F023EF09F06A
:1012420025EF09F025EF09F01200416EF2804150BE
:10125200D8A42EEF09F030EF09F032EF09F032EFA7
:1012620009F01200416EF2804150D8A43BEF09F020
:101272003DEF09F03FEF09F03FEF09F01200416E38
:10128200F2804150D8A448EF09F04AEF09F04CEF40
:1012920009F04CEF09F0120053EC09F04FEF09F09E
:1012A20007EF00F05CEC09F01200F0921200F090EF
:0812B2001200F292120012007A
:020000040030CA
:0E000000FF02091EFF8181FF0FC00FE00F40BD
:00000001FF
