:0400000043EF00F0DA
:060008006A827AED0CF0A3
:100018006A80D8CF43F0E8CF44F0E0CF45F0FACF7C
:1000280046F0FBCF47F0D9CF48F0DACF49F0F3CF0D
:100038004AF0F4CF4BF0F0A824EF00F026EF00F0E0
:100048002FEF00F0F0A22BEF00F02DEF00F02FEFD4
:1000580000F046EC0EF04BC0F4FF4AC0F3FF49C075
:10006800DAFF48C0D9FF47C0FBFF46C0FAFF45C0CA
:10007800E0FF44C0E8FF43C0D8FF6A901000C8EF13
:020088000DF079
:10100000003738392F3435362A3132332D23303DED
:051010002B2569000022
:10101600010E0001866F8051D8B414EF08F016EF68
:1010260008F026EF08F08051D96EDA6ADF30E83230
:10103600E832070B816F070E816524EF08F026EF73
:1010460008F07FEF08F0000E866F9FEF08F08051E2
:10105600D96EDA6ADF30E832E832070B816F010EAB
:10106600826F812B39EF08F0D8908237812F37EFC6
:1010760008F000018251FF0A836F8051D96EDA6A47
:10108600DF50070B020DF3500B0FD96EDA6ADECF75
:1010960084F0DDCF85F084C0D9FF85C0DAFF8351A7
:1010A600DF169FEF08F08051D96EDA6ADF30E8323A
:1010B600E832070B816F010E826F812B65EF08F016
:1010C600D8908237812F63EF08F000018051D96EE6
:1010D600DA6ADF50070B020DF3500B0FD96EDA6A8E
:1010E600DECF83F0DDCF84F083C0D9FF84C0DAFF82
:1010F6008251DF129FEF08F08051D96EDA6ADFBCA9
:1011060087EF08F08AEF08F0010E8BEF08F0000E6B
:10111600816F826B8251000AD8B494EF08F026EFF3
:1011260008F08151000AD8B42AEF08F0010AD8B4B1
:1011360056EF08F026EF08F086511200010E000166
:10114600836F8051D8A4AAEF08F0ACEF08F010EF37
:1011560009F0000E836F2EEF09F08051D96EDA6A1E
:10116600020ED926DE04D8A4BBEF08F0BDEF08F0C6
:10117600C0EF08F0F19C2EEF09F08051D96EDA6AC3
:10118600020ED926DF50D8A4CBEF08F0CDEF08F039
:101196002EEF09F0F18C2EEF09F08051D96EDA6A44
:1011A600020ED926DE04D8A4DBEF08F0DDEF08F046
:1011B600E0EF08F0F19A2EEF09F08051D96EDA6A65
:1011C600020ED926DF50D8A4EBEF08F0EDEF08F0B9
:1011D6002EEF09F0F18A2EEF09F08051D96EDA6A06
:1011E600020ED926DE04D8A4FBEF08F0FDEF08F0C6
:1011F60000EF09F0F1982EEF09F08051D96EDA6A06
:10120600020ED926DF50D8A40BEF09F00DEF09F036
:101216002EEF09F0F1882EEF09F08051D96EDA6AC7
:10122600030ED926DF50816F826B8251000AD8B433
:101236001FEF09F0ACEF08F08151000AD8B4B0EF07
:1012460008F0010AD8B4D0EF08F0030AD8B4F0EFDA
:1012560008F0ACEF08F083511200010E0001876F11
:101266008051D8B439EF09F03BEF09F04BEF09F0A4
:101276008051D96EDA6ADF30E832E832070B826FC6
:10128600070E826549EF09F04BEF09F0A4EF09F06C
:10129600000E876FB9EF09F08051D96EDA6ADF3038
:1012A600E832E832070B826F010E836F822B5EEF06
:1012B60009F0D8908337822F5CEF09F00001805146
:1012C600D96EDA6ADF50070B020DF350010FD96EA3
:1012D600DA6ADECF84F0DDCF85F084C0D9FF85C021
:1012E600DAFF8351DF12B9EF09F08051D96EDA6A5D
:1012F600DF30E832E832070B826F010E836F822BF4
:1013060087EF09F0D8908337822F85EF09F0000127
:101316008351FF0A846F8051D96EDA6ADF50070B5A
:10132600020DF350010FD96EDA6ADECF85F0DDCFFC
:1013360086F085C0D9FF86C0DAFF8451DF16B9EF83
:1013460009F08151826F836B8351000AD8B4AEEFE6
:1013560009F04BEF09F08251000AD8B478EF09F092
:10136600010AD8B44FEF09F04BEF09F0875112008C
:10137600000E0001856F83BFC5EF09F0C3EF09F0CA
:10138600CBEF09F0826D831FD8B0832B010E856FDA
:1013960081BFD2EF09F0D0EF09F0D8EF09F0806DE8
:1013A600811FD8B0812B010E851B000E876F000EA2
:1013B600866F82518311D8B4E3EF09F0E5EF09F0A7
:1013C6000DEF0AF0010E846FEDEF09F0D890823729
:1013D6008337842B83AFF2EF09F0F4EF09F0E9EFDE
:1013E60009F0D890863787378251805D83518159BD
:1013F600D8A000EF0AF002EF0AF007EF0AF08251D8
:10140600805F8351815B8681D89083338233842FBA
:10141600F4EF09F08551D8B413EF0AF015EF0AF08E
:1014260019EF0AF0866D871FD8B0872B86C080F02B
:1014360087C081F01200010E0001836F8051D8A48D
:1014460027EF0AF029EF0AF05BEF0AF0000E836F30
:1014560079EF0AF0F28EF28879EF0AF0D08E805199
:10146600D96EDA6A040ED926DE04D8A43DEF0AF056
:101476003FEF0AF042EF0AF0F28E43EF0AF0F28CE9
:10148600F08679EF0AF0D08E8051D96EDA6A040EB2
:10149600D926DE04D8A452EF0AF054EF0AF057EF2B
:1014A6000AF0F28E58EF0AF0F28CF08879EF0AF023
:1014B6008051D96EDA6A030ED926DF50816F826BAE
:1014C6008251000AD8B46AEF0AF029EF0AF0815176
:1014D600000AD8B42DEF0AF0010AD8B431EF0AF0A9
:1014E600030AD8B446EF0AF029EF0AF08351120036
:1014F600000E0001856F81BF85EF0AF083EF0AF0C9
:101506008BEF0AF0806D811FD8B0812B010E856F9D
:1015160083BF92EF0AF090EF0AF096EF0AF0826D21
:10152600831FD8B0832B82518311D8B49DEF0AF064
:101536009FEF0AF0C3EF0AF0010E846FA7EF0AF0DF
:10154600D89082378337842B83AFACEF0AF0AEEFA7
:101556000AF0A3EF0AF08251805D83518159D8A029
:10156600B7EF0AF0B9EF0AF0BDEF0AF08251805FDB
:101576008351815BD89083338233842FAEEF0AF098
:101586008551D8B4C9EF0AF0CBEF0AF0CFEF0AF0D5
:10159600806D811FD8B0812B80C080F081C081F022
:1015A600120000018351D8A4DBEF0AF0DDEF0AF048
:1015B60008EF0BF0000E866F26EF0BF08351D96E05
:1015C600DA6ADECF80F0DDCF81F0B7EC0EF00001F5
:1015D600866F26EF0BF08351D96EDA6ADECF80F084
:1015E600DDCF81F0A1EC0EF00001866F26EF0BF047
:1015F6008351D96EDA6ADECF80F0DDCF81F08BECD5
:101606000EF00001866F26EF0BF08351D96EDA6A71
:10161600030ED926DF50846F856B8551000AD8B436
:1016260017EF0BF0DDEF0AF08451000AD8B4E1EFB2
:101636000AF0010AD8B4EEEF0AF0030AD8B4FBEFB9
:101646000AF0DDEF0AF086511200010E0001836FE9
:101656008051D8A431EF0BF033EF0BF05DEF0BF0B8
:10166600000E836F77EF0BF08051D96EDA6A030EA6
:10167600D926DE04D8A442EF0BF044EF0BF047EF77
:101686000BF0F08C77EF0BF0F08E77EF0BF08051CC
:10169600D96EDA6A030ED926DE04D8A455EF0BF00C
:1016A60057EF0BF05AEF0BF0F09C77EF0BF0F09E34
:1016B60077EF0BF08051D96EDA6A040ED926DF5027
:1016C600816F826B8251000AD8B46CEF0BF033EF56
:1016D6000BF08151000AD8B44AEF0BF0010AD8B4D6
:1016E60037EF0BF033EF0BF08351120000018851F6
:1016F600D8B480EF0BF082EF0BF08AEF0BF0090EF7
:10170600896588EF0BF08AEF0BF08EEF0BF0000E79
:101716008A6FB9EF0BF088C080F08951010B816F99
:1017260030EC09F000018A6F8829806FD8908931E2
:10173600010B816F30EC09F000018A6F8851020FAE
:10174600806F8941E8423F0B010B816F30EC09F055
:1017560000018A6F8851030F806F8939E8461F0B95
:10176600010B816F30EC09F000018A6F8A5112007B
:101776003A50D8B4C1EF0BF0C3EF0BF0D3EF0BF038
:101786003A50D96EDA6ADF30E832E832070B3B6E40
:10179600070E3B64D1EF0BF0D3EF0BF0D5EF0BF058
:1017A600FBEF0BF03A50D96EDA6ADF30E832E832F6
:1017B600070B3B6E010E3C6E3B2AE4EF0BF0D89014
:1017C6003C363B2EE2EF0BF03A50D96EDA6ADF5028
:1017D600070B020DF350010FD96EDA6ADECF3DF02A
:1017E600DDCF3EF03DC0D9FF3EC0DAFF3C50DF1AE8
:1017F60012002B50D8B402EF0CF004EF0CF014EFEB
:101806000CF02B50D96EDA6ADF30E832E832070B7B
:101816002C6E070E2C6412EF0CF014EF0CF016EF82
:101826000CF03CEF0CF02B50D96EDA6ADF30E83260
:10183600E832070B2C6E010E2D6E2C2A25EF0CF0CC
:10184600D8902D362C2E23EF0CF02B50D96EDA6A59
:10185600DF50070B020DF350010FD96EDA6ADECFA7
:101866002EF0DDCF2FF02EC0D9FF2FC0DAFF2D507E
:10187600DF1A1200010E00018D6F8B51D8A446EFBE
:101886000CF048EF0CF04CEF0CF0000E8D6F77EF7C
:101896000CF069C08EF08B51D96EDA6ADF50070BF7
:1018A6008C6F8E518C19F80B8C198E6F8B51D96EEB
:1018B600DA6ADF30E832E832070B8C6F8C478C47E8
:1018C6008C478E518C19C70B8C198E6F8E9D8B5140
:1018D600D96EDA6ADFAC02D08E8F02D000018E9FFD
:1018E6008E0E886F96EC0DF000018D5112000600E9
:1018F600FACF34F0FBCF35F0D9CF36F0DACF37F068
:10190600F3CF38F0F4CF39F0F2A88CEF0CF08EEF6D
:101916000CF097EF0CF0F2A293EF0CF095EF0CF0B1
:1019260097EF0CF074EC0EF0F0A69CEF0CF09EEF27
:101936000CF0A7EF0CF0F0A0A3EF0CF0A5EF0CF065
:10194600A7EF0CF05DEC0EF039C0F4FF38C0F3FFE2
:1019560037C0DAFF36C0D9FF35C0FBFF34C0FAFF07
:101966006A921100010E416E3F50D8A4BDEF0CF0F3
:10197600BFEF0CF0C3EF0CF0000E416EEDEF0CF074
:1019860066C042F03F50D96EDA6ADF50070B406EF0
:1019960042504018F80B4018426E3F50D96EDA6A32
:1019A600DF30E832E832070B406E4046404640469C
:1019B60042504018C70B4018426E429C3F50D96EA9
:1019C600DA6ADFAC02D0428E01D0429E420E3A6EF7
:1019D600BBEC0BF041501200010E326E3050D8A411
:1019E600F7EF0CF0F9EF0CF0FDEF0CF0000E326E95
:1019F60027EF0DF066C033F03050D96EDA6ADF504B
:101A0600070B316E33503118F80B3118336E3050E6
:101A1600D96EDA6ADF30E832E832070B316E3146CA
:101A26003146314633503118C70B3118336E339C6B
:101A36003050D96EDA6ADFAC02D0338E01D0339ED5
:101A4600330E2B6EFCEC0BF032501200010E00012F
:101A5600836F8051D8A432EF0DF034EF0DF041EFD3
:101A66000DF0000E836F5FEF0DF0F2985FEF0DF053
:101A7600F0965FEF0DF0F0985FEF0DF08051D96EA4
:101A8600DA6A030ED926DF50816F826B8251000A13
:101A9600D8B450EF0DF034EF0DF08151000AD8B4F0
:101AA60038EF0DF0010AD8B43BEF0DF0030AD8B4B5
:101AB6003EEF0DF034EF0DF083511200010E0001E0
:101AC6008E6F8D51D8A46AEF0DF06CEF0DF070EFAC
:101AD6000DF0000E8E6F94EF0DF08DC080F029ECA6
:101AE6000DF000018E138DC080F0A1EC08F000010E
:101AF6008E138DC080F028EC0BF000018E138DC084
:101B06008BF0CDEC0EF000018E138DC083F0D4EC7B
:101B16000AF000018E138DC080F01EEC0AF0000161
:101B26008E138E511200010E00018A6F8851D8B4AF
:101B36009FEF0DF0A1EF0DF0B1EF0DF08851D96ECA
:101B4600DA6ADF30E832E832070B896F070E8965FB
:101B5600AFEF0DF0B1EF0DF0B5EF0DF0000E8A6F9F
:101B6600C5EF0DF088C080F00BEC08F088C080F05F
:101B760000018851D96EDA6A000EDFBE010E816F50
:101B860030EC09F000018A511200480EF66E1E0E66
:101B9600F76E000EF86E00EE8FF010EE0AF00900F8
:101BA600F5CFEEFFE550E150FAE1C60EF66E1D0EDA
:101BB600F76E000EF86E00EE01F010EE2AF0090046
:101BC600F5CFEEFFE550E150FAE100EE4CF01E0EC7
:101BD600EE6AE806FDE16A906A920001F3EF0DF005
:101BE60014EC0FF0200E0001886F62C080F0816B4C
:101BF600000E836F0A0E826FBBEC09F00001805164
:101C0600896F79EC0BF0156E250E0001886F62C0A6
:101C160080F0816B000E836F0A0E826F7BEC0AF0F8
:101C260000018051896F79EC0BF0156EF5EF0DF020
:101C360043EF00F000018B51D8A424EF0EF026EFFD
:101C46000EF02AEF0EF0000E8C6F44EF0EF08BC0F4
:101C560088F096EC0DF000018C6F8B29886F96EC5E
:101C66000DF000018C6F8B51020F886F96EC0DF012
:101C760000018C6F8B51030F886F96EC0DF00001FD
:101C86008C6F8C511200F0925C505D10D8B44EEF00
:101C96000EF050EF0EF05CEF0EF002D85CEF0EF097
:101CA6000500FA6E5C50FD6E5D50FE6EFF6AFA50DE
:101CB60012001200F0905E505F10D8B465EF0EF07F
:101CC60067EF0EF073EF0EF002D873EF0EF005001B
:101CD600FA6E5E50FD6E5F50FE6EFF6AFA5012009D
:101CE6001200F29260506110D8B47CEF0EF07EEFD5
:101CF6000EF08AEF0EF002D88AEF0EF00500FA6EAB
:101D06006050FD6E6150FE6EFF6AFA5012001200BE
:101D1600010E0001826F80518111D8A495EF0EF05B
:101D260097EF0EF09BEF0EF0000E826F9FEF0EF016
:101D360080C05CF081C05DF082511200010E00018E
:101D4600826F80518111D8A4ABEF0EF0ADEF0EF08B
:101D5600B1EF0EF0000E826FB5EF0EF080C05EF0B0
:101D660081C05FF082511200010E0001826F805126
:101D76008111D8A4C1EF0EF0C3EF0EF0C7EF0EF03D
:101D8600000E826FCBEF0EF080C060F081C061F074
:101D96008251120000018B51D8A4D4EF0EF0D6EF79
:101DA6000EF0DAEF0EF0000E8C6FE1EF0EF08B51B5
:101DB600050F886F96EC0DF000018C6F8C511200A8
:101DC600890F8A0F8B0F8C0F8D0F920F930F940F25
:101DD600950F960F0101010101101E00000141003F
:101DE60008101801020A121A0122200E00018B6F38
:101DF6001DEC0EF0250E00018B6F1DEC0EF02A0E69
:101E060000018B6F3DEC0CF012006AA20DEF0FF093
:101E16001DEF0FF0622A2A0E3F6EB5EC0CF0156E20
:101E26001200F8EC0EF01A0E00018D6F61EC0DF049
:101E3600156E1200622A2A0E306EEFEC0CF0156E4B
:0C1E46001200800F810F820F830F840FA9
:020000040030CA
:0E000000FF02091EFF8181FF0FC00FE00F40BD
:00000001FF
