:0400000007EF00F016
:0A0008006E820BED08F0E2EF0AF043
:10100000003738392F3435362A3132332D23303DED
:051010002B2569000022
:101016000600F2A811EF08F013EF08F01CEF08F035
:10102600F2A218EF08F01AEF08F01CEF08F06EECC9
:101036000BF0F0A621EF08F023EF08F02CEF08F0F4
:10104600F0A028EF08F02AEF08F02CEF08F06CEC7F
:101056000BF0F0A831EF08F033EF08F03CEF08F0A2
:10106600F0A238EF08F03AEF08F03CEF08F06AEC2F
:101076000BF0F2A641EF08F043EF08F0EAEF08F0B4
:10108600F2A048EF08F04AEF08F0EAEF08F081A86E
:101096004FEF08F051EF08F05EEF08F02304D8A4F4
:1010A60057EF08F059EF08F05EEF08F0000E236ED8
:1010B600000E5DEC0BF081B863EF08F065EF08F009
:1010C60072EF08F02350D8A46BEF08F06DEF08F02C
:1010D60072EF08F0010E236E010E5DEC0BF081AA93
:1010E60077EF08F079EF08F086EF08F02204D8A42D
:1010F6007FEF08F081EF08F086EF08F0000E226E11
:10110600000E50EC0BF081BA8BEF08F08DEF08F073
:101116009AEF08F02250D8A493EF08F095EF08F064
:101126009AEF08F0010E226E010E50EC0BF081AC26
:101136009FEF08F0A1EF08F0AEEF08F02104D8A465
:10114600A7EF08F0A9EF08F0AEEF08F0000E216E49
:10115600000E43EC0BF081BCB3EF08F0B5EF08F0DE
:10116600C2EF08F02150D8A4BBEF08F0BDEF08F09D
:10117600C2EF08F0010E216E010E43EC0BF081AEBA
:10118600C7EF08F0C9EF08F0D6EF08F02004D8A49E
:10119600CFEF08F0D1EF08F0D6EF08F0000E206E82
:1011A600000E36EC0BF081BEDBEF08F0DDEF08F049
:1011B600EAEF08F02050D8A4E3EF08F0E5EF08F0D6
:1011C600EAEF08F0010E206E010E36EC0BF06E927F
:1011D6001100646E16EF09F0928057EF09F09282C3
:1011E60057EF09F0928457EF09F0928657EF09F00E
:1011F600928A57EF09F0968057EF09F0968257EFDB
:1012060009F0968457EF09F0938457EF09F0938617
:1012160057EF09F0938257EF09F0938857EF09F0DB
:10122600938057EF09F06450626E636A6350000A58
:10123600D8B420EF09F057EF09F06250000AD8B48D
:10124600EFEF08F0010AD8B4F2EF08F0030AD8B4B9
:10125600F5EF08F0010AD8B4F8EF08F0070AD8B499
:10126600FBEF08F0010AD8B4FEEF08F0030AD8B481
:1012760001EF09F0010AD8B404EF09F00F0AD8B457
:1012860007EF09F0010AD8B40AEF09F0030AD8B447
:101296000DEF09F0010AD8B410EF09F0070AD8B427
:1012A60013EF09F057EF09F01200010E666E625057
:1012B600D8B460EF09F062EF09F06AEF09F0635005
:1012C600D8A468EF09F06AEF09F06EEF09F0000E96
:1012D600666EB0EF09F06250D96EDA6A050ED9264D
:1012E600DFA278EF09F07AEF09F08DEF09F0C3502D
:1012F600C4CF64F0656A64C065F0646A6426000E53
:1013060065226350D96EDA6A64C0DEFF65C0DDFF10
:10131600B0EF09F06250D96EDA6A050ED926DFB24F
:1013260097EF09F099EF09F07AEF09F0C350C4CFAF
:1013360064F0656A64C065F0646A6426000E65221E
:101346006534653264326534653264326350D96E11
:10135600DA6A64C0DEFF65C0DDFF66501200010E6A
:10136600676E6550D8A4BAEF09F0BCEF09F0C0EF7C
:1013760009F0000E676EFBEF09F0C2906550D96E5A
:10138600DA6A020ED926DF50666E664666466646FD
:10139600C0506618C70B6618C06E6550D96EDA6AFB
:1013A600030ED926DF50666EC0506618F80B661815
:1013B600C06E6550D96EDA6A040ED926DF50666EA5
:1013C60066466646C2506618C30B6618C26E6550FE
:1013D600D96EDA6A040ED926DF50ECEC08F065C047
:1013E60062F014EC0BF065C062F085EC0AF0C28086
:1013F60067501200010E6D6E6950D8B405EF0AF001
:1014060007EF0AF00FEF0AF06B50D8A40DEF0AF0C1
:101416000FEF0AF013EF0AF0000E6D6E34EF0AF0CC
:1014260069C065F06AC066F0C6EC0AF06D1669C060
:1014360062F025EC0BF06D1669C062F06C0E636EFF
:1014460060EC0AF06D16C2B22BEF0AF02DEF0AF02F
:1014560026EF0AF069C062F06BC063F058EC09F041
:101466006D166D501200FDEC0AF0360E696E000E18
:101476006A6E5F0E6B6EFDEC09F01F6E300E696EC4
:10148600010E6A6E5D0E6B6EFDEC09F01F6E2A0E84
:10149600696E020E6A6E5B0E6B6EFDEC09F01F6ED6
:1014A600240E696E030E6A6E590E6B6EFDEC09F022
:1014B6001F6E38EF0AF007EF00F0010E646E6250FF
:1014C600D8B468EF0AF06AEF0AF072EF0AF06350D8
:1014D600D8A470EF0AF072EF0AF076EF0AF0000E69
:1014E600646E83EF0AF06350D96EDA6AC2A27EEFA9
:1014F6000AF081EF0AF0010E82EF0AF0000EDF6EAD
:10150600645012006250D96EDA6A050ED926DFA041
:101516008FEF0AF091EF0AF095EF0AF0C18AC188C1
:10152600A7EF0AF06250D96EDA6A050ED926DFB047
:101536009FEF0AF0A1EF0AF0A5EF0AF0C19AC19851
:10154600A7EF0AF0C19AC1981200800F810F820F8F
:10155600830F840F890F8A0F8B0F8C0F8D0F920FBD
:10156600930F940F950F960F0101010101000005DD
:101576000503020000050502020000050501020040
:05158600000505000254
:10158C00010E686E6550D8A4CEEF0AF0D0EF0AF0C9
:10159C00D4EF0AF0000E686EE0EF0AF066C067F058
:1015AC0067466746C2506718C30B6718C26E665011
:1015BC00ECEC08F068501200500EF66E150EF76E3B
:1015CC00000EF86E00EE01F010EE3BF00900F5CFC6
:1015DC00EEFFE550E150FAE100EE3CF0250EEE6A2C
:1015EC00E806FDE16E906E92000136EF0AF070ECA9
:1015FC000BF0360E656EB2EC09F01F6E300E656E98
:10160C00B2EC09F01F6E2A0E656EB2EC09F01F6E7B
:10161C00240E656EB2EC09F01F6E12006250D96E8A
:10162C00DA6A050ED926DFA21EEF0BF020EF0BF0C5
:10163C0023EF0BF0C08E24EF0BF0C09E1200010EB6
:10164C00636E6250D8A42DEF0BF02FEF0BF033EF3D
:10165C000BF0000E636E34EF0BF0C282635012007D
:10166C00616EF2806150D8A43EEF0BF040EF0BF0AE
:10167C0042EF0BF042EF0BF01200616EF280615002
:10168C00D8A44BEF0BF04DEF0BF04FEF0BF04FEFEF
:10169C000BF01200616EF2806150D8A458EF0BF081
:1016AC005AEF0BF05CEF0BF05CEF0BF01200616E7D
:1016BC00F2806150D8A465EF0BF067EF0BF069EF87
:1016CC000BF069EF0BF01200F0921200F090120088
:0616DC00F2921200120060
:020000040030CA
:0E000000FF071F1FFF8185FF0FC00FE00F409D
:00000001FF
