:0400000007EF00F016
:0A0008006E820BED08F00DEF0FF013
:10100000003738392F3435362A3132332D23303DED
:051010002B2569000022
:101016000600FACF5BF0FBCF5CF0D9CF5DF0DACFFC
:101026005EF0F3CF5FF0F4CF60F0F2A81DEF08F0AA
:101036001FEF08F028EF08F0F2A224EF08F026EFE1
:1010460008F028EF08F016EC11F0F0A62DEF08F0E6
:101056002FEF08F038EF08F0F0A034EF08F036EF85
:1010660008F038EF08F0FFEC10F0F0A83DEF08F0BC
:101076003FEF08F048EF08F0F0A244EF08F046EF23
:1010860008F048EF08F0E8EC10F0F2A64DEF08F093
:101096004FEF08F0F6EF08F0F2A054EF08F056EF25
:1010A60008F0F6EF08F081A85BEF08F05DEF08F0B6
:1010B6006AEF08F01B04D8A463EF08F065EF08F0A8
:1010C6006AEF08F0000E1B6E000EB6EC0FF081B84A
:1010D6006FEF08F071EF08F07EEF08F01B50D8A410
:1010E60077EF08F079EF08F07EEF08F0010E1B6E3F
:1010F600010EB6EC0FF081AA83EF08F085EF08F039
:1011060092EF08F01A04D8A48BEF08F08DEF08F0E0
:1011160092EF08F0000E1A6E000E8CEC0FF081BAFA
:1011260097EF08F099EF08F0A6EF08F01A50D8A448
:101136009FEF08F0A1EF08F0A6EF08F0010E1A6E77
:10114600010E8CEC0FF081ACABEF08F0ADEF08F0C0
:10115600BAEF08F01904D8A4B3EF08F0B5EF08F019
:10116600BAEF08F0000E196E000E62EC0FF081BCAB
:10117600BFEF08F0C1EF08F0CEEF08F01950D8A481
:10118600C7EF08F0C9EF08F0CEEF08F0010E196EB0
:10119600010E62EC0FF081AED3EF08F0D5EF08F048
:1011A600E2EF08F01804D8A4DBEF08F0DDEF08F052
:1011B600E2EF08F0000E186E000E38EC0FF081BE5C
:1011C600E7EF08F0E9EF08F0F6EF08F01850D8A4BA
:1011D600EFEF08F0F1EF08F0F6EF08F0010E186EE9
:1011E600010E38EC0FF060C0F4FF5FC0F3FF5EC085
:1011F600DAFF5DC0D9FF5CC0FBFF5BC0FAFF6E92F1
:101206001100010E676E6150D8B40CEF09F00EEFB5
:1012160009F01EEF09F06150D96EDA6ADF30E83264
:10122600E832070B626E070E62641CEF09F01EEFD0
:1012360009F075EF09F0000E676E95EF09F0615041
:10124600D96EDA6ADF30E832E832070B626E010ED9
:10125600636E622A31EF09F0D8906336622E2FEF63
:1012660009F06350FF0A646E6150D96EDA6ADF5086
:10127600070B020DF3500B0FD96EDA6ADECF65F05D
:10128600DDCF66F065C0D9FF66C0DAFF6450DF16B1
:1012960095EF09F06150D96EDA6ADF30E832E8324C
:1012A600070B626E010E636E622A5CEF09F0D8903E
:1012B6006336622E5AEF09F06150D96EDA6ADF5052
:1012C600070B020DF3500B0FD96EDA6ADECF64F00E
:1012D600DDCF65F064C0D9FF65C0DAFF6350DF1269
:1012E60095EF09F06150D96EDA6ADFBC7DEF09F03F
:1012F60080EF09F0010E81EF09F0000E626E636A5D
:101306006350000AD8B48AEF09F01EEF09F0625064
:10131600000AD8B422EF09F0010AD8B44DEF09F05B
:101326001EEF09F067501200010E646E6150D8A4DA
:101336009FEF09F0A1EF09F005EF0AF0000E646EC9
:1013460023EF0AF06150D96EDA6A020ED926DE045E
:10135600D8A4B0EF09F0B2EF09F0B5EF09F0F19CAF
:1013660023EF0AF06150D96EDA6A020ED926DF50F1
:10137600D8A4C0EF09F0C2EF09F023EF0AF0F18C10
:1013860023EF0AF06150D96EDA6A020ED926DE041E
:10139600D8A4D0EF09F0D2EF09F0D5EF09F0F19A11
:1013A60023EF0AF06150D96EDA6A020ED926DF50B1
:1013B600D8A4E0EF09F0E2EF09F023EF0AF0F18A92
:1013C60023EF0AF06150D96EDA6A020ED926DE04DE
:1013D600D8A4F0EF09F0F2EF09F0F5EF09F0F19873
:1013E60023EF0AF06150D96EDA6A020ED926DF5071
:1013F600D8A400EF0AF002EF0AF023EF0AF0F18812
:1014060023EF0AF06150D96EDA6A030ED926DF504F
:10141600626E636A6350000AD8B414EF0AF0A1EF53
:1014260009F06250000AD8B4A5EF09F0010AD8B451
:10143600C5EF09F0030AD8B4E5EF09F0A1EF09F00A
:10144600645012006850D8A42BEF0AF02DEF0AF072
:1014560031EF0AF0000E6B6EAFEF0AF0F296F280F3
:10146600F28EF28C6850050F616E04EC09F06B6E1B
:1014760089EF0AF06850D96EDA6ADECF40F0DDCF28
:1014860041F06850D96EDA6A020ED926DECF3EF0F8
:10149600DDCF3FF0AEEF0AF06850D96EDA6ADECFE4
:1014A6003CF0DDCF3DF06850D96EDA6A020ED926DF
:1014B600DECF3AF0DDCF3BF0AEEF0AF06850D96EE2
:1014C600DA6ADECF38F0DDCF39F06850D96EDA6AE5
:1014D600020ED926DECF36F0DDCF37F0AEEF0AF0BA
:1014E6006850D96EDA6ADECF34F0DDCF35F0685059
:1014F600D96EDA6A020ED926DECF32F0DDCF33F0AE
:10150600AEEF0AF0000E6B6EAEEF0AF06850D96EC1
:10151600DA6A050ED926DF30E832E832070B696E43
:101526006A6A6A50000AD8B49BEF0AF085EF0AF09F
:101536006950040AD8B43DEF0AF0010AD8B44FEF57
:101546000AF0030AD8B461EF0AF0010AD8B473EFBF
:101556000AF085EF0AF0F2866B501200010E686EF3
:101566006150D8B4B9EF0AF0BBEF0AF0CBEF0AF03E
:101576006150D96EDA6ADF30E832E832070B636E03
:10158600070E6364C9EF0AF0CBEF0AF022EF0BF007
:10159600000E686E37EF0BF06150D96EDA6ADF30F5
:1015A600E832E832070B636E010E646E632ADEEFE3
:1015B6000AF0D8906436632EDCEF0AF06150D96EDB
:1015C600DA6ADF50070B020DF350010FD96EDA6AA3
:1015D600DECF65F0DDCF66F065C0D9FF66C0DAFF05
:1015E6006450DF1237EF0BF06150D96EDA6ADF30E4
:1015F600E832E832070B636E010E646E632A06EF6B
:101606000BF0D8906436632E04EF0BF06450FF0A9B
:10161600656E6150D96EDA6ADF50070B020DF35022
:10162600010FD96EDA6ADECF66F0DDCF67F066C0ED
:10163600D9FF67C0DAFF6550DF1637EF0BF062504F
:10164600636E646A6450000AD8B42CEF0BF0CBEFDB
:101656000AF06350000AD8B4F7EF0AF0010AD8B4CA
:10166600CFEF0AF0CBEF0AF068501200010E576E6A
:101676005050D8B441EF0BF043EF0BF053EF0BF0A3
:101686005050D96EDA6ADF30E832E832070B526E14
:10169600070E526451EF0BF053EF0BF0AAEF0BF06D
:1016A600000E576EBFEF0BF05050D96EDA6ADF307E
:1016B600E832E832070B526E010E536E522A66EF7D
:1016C6000BF0D8905336522E64EF0BF05050D96E73
:1016D600DA6ADF50070B020DF350010FD96EDA6A92
:1016E600DECF54F0DDCF55F054C0D9FF55C0DAFF38
:1016F6005350DF12BFEF0BF05050D96EDA6ADF306D
:10170600E832E832070B526E010E536E522A8EEF04
:101716000BF0D8905336522E8CEF0BF05350FF0A35
:10172600546E5050D96EDA6ADF50070B020DF35033
:10173600010FD96EDA6ADECF55F0DDCF56F055C00F
:10174600D9FF56C0DAFF5450DF16BFEF0BF05150E9
:10175600526E536A5350000AD8B4B4EF0BF053EFED
:101766000BF05250000AD8B47FEF0BF0010AD8B440
:1017760057EF0BF053EF0BF0575012000001A95131
:10178600D8A4C8EF0BF0CAEF0BF0CEEF0BF0000EAB
:10179600AC6F39EF0CF0A929696EDEEC0EF0000192
:1017A600AC6FA9C069F0DEEC0EF00001AC6F000E64
:1017B600AB6FA951AB25020F696EDEEC0EF000018E
:1017C600AB2B030EAB65EAEF0BF0ECEF0BF0DCEFA7
:1017D6000BF0340E0001AA6FF10EE82EFED7AA2FE9
:1017E600FCD700D0A9C06CF0380E6D6E7BEC0EF005
:1017F6000D0E0001AA6FFB0EE82EFED7AA2FFCD70E
:1018060000D0A9C06CF0380E6D6E7BEC0EF0640E45
:10181600E82EFED7A9C06CF0380E6D6E7BEC0EF08C
:10182600A9C06CF0010E6D6E7BEC0EF0A9C06CF0D9
:10183600020E6D6E7BEC0EF0A9C06CF0060E6D6E9E
:101846007BEC0EF0A9C06CF00C0E6D6E7BEC0EF00E
:10185600A9C06CF0280E6D6E7BEC0EF0A9C06CF082
:10186600800E6D6E7BEC0EF00001AC6FAC51120079
:10187600000E556E53BE44EF0CF042EF0CF04AEFEB
:101886000CF0526C531ED8B0532A010E556E51BE41
:1018960051EF0CF04FEF0CF057EF0CF0506C511E5F
:1018A600D8B0512A010E551A000E576E000E566E0C
:1018B60052505310D8B462EF0CF064EF0CF08CEF7A
:1018C6000CF0010E546E6CEF0CF0D8905236533675
:1018D600542A53AE71EF0CF073EF0CF068EF0CF076
:1018E600D890563657365250505C53505158D8A05F
:1018F6007FEF0CF081EF0CF086EF0CF05250505E4B
:101906005350515A5680D89053325232542E73EF58
:101916000CF05550D8B492EF0CF094EF0CF098EF11
:101926000CF0566C571ED8B0572A56C050F057C008
:1019360051F01200000E556E51BEA6EF0CF0A4EF4A
:101946000CF0ACEF0CF0506C511ED8B0512A010EC1
:10195600556E53BEB3EF0CF0B1EF0CF0B7EF0CF0D1
:10196600526C531ED8B0532A52505310D8B4BEEFFF
:101976000CF0C0EF0CF0E4EF0CF0010E546EC8EF63
:101986000CF0D89052365336542A53AECDEF0CF0A5
:10199600CFEF0CF0C4EF0CF05250505C535051583E
:1019A600D8A0D8EF0CF0DAEF0CF0DEEF0CF05250C6
:1019B600505E5350515AD89053325232542ECFEF74
:1019C6000CF05550D8B4EAEF0CF0ECEF0CF0F0EF59
:1019D6000CF0506C511ED8B0512A50C050F051C076
:1019E60051F01200010E0001AE6FAB0727EF0DF0AC
:1019F600A9C06CF0AB51800F6D6E7BEC0EF0000150
:101A0600AE6F44EF0DF0A9C06CF0AB51C00F6D6E18
:101A16007BEC0EF00001AE6F44EF0DF0A9C06CF048
:101A2600AB51940F6D6E7BEC0EF00001AE6F44EF80
:101A36000DF0A9C06CF0AB51D40F6D6E7BEC0EF0BF
:101A46000001AE6F44EF0DF0AA51AC6FAD6BAD5116
:101A5600000AD8B431EF0DF044EF0DF0AC51010A95
:101A6600D8B4FBEF0CF0030AD8B406EF0DF0010A68
:101A7600D8B411EF0DF0070AD8B41CEF0DF044EFFF
:101A86000DF0AE5112006450D8A44CEF0DF04EEF9D
:101A96000DF076EF0DF0000E676E94EF0DF06450CA
:101AA600D96EDA6ADECF61F0DDCF62F057EC11F065
:101AB600676E94EF0DF06450D96EDA6ADECF61F08E
:101AC600DDCF62F042EC11F0676E94EF0DF06450DA
:101AD600D96EDA6ADECF61F0DDCF62F02DEC11F05F
:101AE600676E94EF0DF06450D96EDA6A030ED9264C
:101AF600DF50656E666A6650000AD8B485EF0DF051
:101B06004EEF0DF06550000AD8B452EF0DF0010A01
:101B1600D8B45EEF0DF0030AD8B46AEF0DF04EEFBD
:101B26000DF067501200010E646E6150D8A49EEF4E
:101B36000DF0A0EF0DF0B3EF0DF0000E646ED1EFD7
:101B46000DF0F28EF28CF288D1EF0DF0F28EF28C5F
:101B5600F086D1EF0DF0F28EF28CF088D1EF0DF019
:101B66006150D96EDA6A030ED926DF50626E636A57
:101B76006350000AD8B4C2EF0DF0A0EF0DF062502A
:101B8600000AD8B4A4EF0DF0010AD8B4A9EF0DF0FD
:101B9600030AD8B4AEEF0DF0A0EF0DF064501200BA
:101BA6005850D8B4D9EF0DF0DBEF0DF0E3EF0DF0A0
:101BB600090E5964E1EF0DF0E3EF0DF0E7EF0DF0DC
:101BC600000E5A6E0EEF0EF058C050F05950010B31
:101BD600516E39EC0BF05A6E5828506ED890593029
:101BE600010B516E39EC0BF05A6E5850020F506EC5
:101BF6005940E8423F0B010B516E39EC0BF05A6E1F
:101C06005850030F506E5938E8461F0B010B516EA2
:101C160039EC0BF05A6E5A501200010E646E615088
:101C2600D8A418EF0EF01AEF0EF027EF0EF0000E04
:101C3600646E45EF0EF0F29845EF0EF0F09645EF24
:101C46000EF0F09845EF0EF06150D96EDA6A030E89
:101C5600D926DF50626E636A6350000AD8B436EF45
:101C66000EF01AEF0EF06250000AD8B41EEF0EF016
:101C7600010AD8B421EF0EF0030AD8B424EF0EF00F
:101C86001AEF0EF0645012006C50D8A44DEF0EF00F
:101C96004FEF0EF054EF0EF0000E0001A86F79EF33
:101CA6000EF06CC061F0010E626EB1EC0AF000013C
:101CB600A86F6CC069F06D380F0B6A6EE0EC0FF020
:101CC6000001A86F6CC069F092EC10F00001A86FDB
:101CD6006CC069F06DC06AF0E0EC0FF00001A86F0F
:101CE6006CC069F092EC10F00001A86FA8511200C8
:101CF6006C50D8A481EF0EF083EF0EF088EF0EF053
:101D0600000E0001A86FADEF0EF06CC061F0000E82
:101D1600626EB1EC0AF00001A86F6CC069F06D3814
:101D26000F0B6A6EE0EC0FF00001A86F6CC069F053
:101D360092EC10F00001A86F6CC069F06DC06AF0FB
:101D4600E0EC0FF00001A86F6CC069F092EC10F0A7
:101D56000001A86FA8511200010E0001A96FA85139
:101D6600D8A4B8EF0EF0BAEF0EF0BEEF0EF0000EEC
:101D7600A96FDCEF0EF0A8C061F010EC0EF00001C8
:101D8600A913A8C061F097EC09F00001A913A8C037
:101D96006CF080EC11F00001A913A8C064F046ECC9
:101DA6000DF00001A913A8C061F096EC0DF000013A
:101DB600A913A9511200010E6B6E6950D8B4E6EF53
:101DC6000EF0E8EF0EF0F8EF0EF06950D96EDA6A11
:101DD600DF30E832E832070B6A6E070E6A64F6EF08
:101DE6000EF0F8EF0EF0FCEF0EF0000E6B6E0BEF40
:101DF6000FF069C061F004EC09F069C061F0695048
:101E0600D96EDA6A000EDFBE010E626EB1EC0AF020
:101E16006B501200D80EF66E220EF76E000EF86E9C
:101E260000EE80F010EE28F00900F5CFEEFFE55049
:101E3600E150FAE19E0EF66E210EF76E000EF86E78
:101E460000EE01F010EE31F00900F5CFEEFFE5509F
:101E5600E150FAE100EE32F01E0EEE6AE806FDE110
:101E66006E906E920001B1EF10F0506EF2805050FD
:101E7600D8A440EF0FF042EF0FF044EF0FF061EF00
:101E86000FF05004D8A44AEF0FF04CEF0FF061EFBB
:101E96000FF032503310D8B453EF0FF055EF0FF068
:101EA60061EF0FF002D861EF0FF00500FA6E3250C5
:101EB600FD6E3350FE6EFF6AFA5012001200506E2D
:101EC600F2805050D8A46AEF0FF06CEF0FF06EEF6F
:101ED6000FF08BEF0FF05004D8A474EF0FF076EFED
:101EE6000FF08BEF0FF036503710D8B47DEF0FF0B0
:101EF6007FEF0FF08BEF0FF002D88BEF0FF005009E
:101F0600FA6E3650FD6E3750FE6EFF6AFA501200BA
:101F16001200506EF2805050D8A494EF0FF096EF56
:101F26000FF098EF0FF0B5EF0FF05004D8A49EEF26
:101F36000FF0A0EF0FF0B5EF0FF03A503B10D8B40A
:101F4600A7EF0FF0A9EF0FF0B5EF0FF002D8B5EF3E
:101F56000FF00500FA6E3A50FD6E3B50FE6EFF6ABA
:101F6600FA5012001200506EF2805050D8A4BEEF04
:101F76000FF0C0EF0FF0C2EF0FF0DFEF0FF05004DD
:101F8600D8A4C8EF0FF0CAEF0FF0DFEF0FF03E5006
:101F96003F10D8B4D1EF0FF0D3EF0FF0DFEF0FF013
:101FA60002D8DFEF0FF00500FA6E3E50FD6E3F508F
:101FB600FE6EFF6AFA50120012006950020F616E3F
:101FC6006A50010B626EB1EC0AF06950030F616E44
:101FD600D8906A30010B626EB1EC0AF06950040FBA
:101FE600616E6A40E8423F0B010B626EB1EC0AF08B
:101FF6006950050F616E6A38E8461F0B010B626E69
:10200600B1EC0AF06B6E6B5012006C50D8A40EEF58
:1020160010F010EF10F014EF10F0000E6D6E2AEFB6
:1020260010F06CC069F0DEEC0EF06D6E6C28696E17
:10203600DEEC0EF06D6E6C50020F696EDEEC0EF08B
:102046006D6E6C50030F696EDEEC0EF06D6E6D50AA
:10205600120094EC11F0A20E0001A86FAFEC0EF086
:10206600176E9C0E0001A86FAFEC0EF0176E960E61
:10207600686E25EC0AF0176E8A0E686E25EC0AF07B
:10208600176E1C0E686E25EC0AF0176E900E686EC1
:1020960025EC0AF0176E1200482A280E586E48C022
:1020A60050F0516A000E536E0A0E526E3BEC0CF065
:1020B6005050596ED3EC0DF0176E2D0E586E48C069
:1020C60050F0516A000E536E0A0E526E9DEC0CF0E3
:1020D6005050596ED3EC0DF0176E12000001AF513F
:1020E600D8A478EF10F07AEF10F07EEF10F0000E23
:1020F600B36F90EF10F0AFC0A9F0B0C0AAF0B1C0B6
:10210600ABF0F5EC0CF00001B36FAFC06CF0B2C0F1
:102116006DF047EC0EF00001B36FB3511200695039
:10212600D8A498EF10F09AEF10F09EEF10F0000E82
:102136006A6EAFEF10F06928616E010E626EB1EC47
:102146000AF0030EE82EFED700006928616E000E25
:10215600626EB1EC0AF06A6E6A5012002CEC10F056
:10216600220E0001AF6F16C0B0F0010EB16F7C0EEB
:10217600B26F71EC10F0176E220E0001AF6F15C032
:10218600B0F0140EB16F7C0EB26F71EC10F0176EDA
:10219600CBEF10F007EF00F0890F8A0F8B0F8C0F33
:1021A6008D0F920F930F940F950F960F0202010158
:1021B60001010100006C2301610B03131B232B009B
:0921C60008101801020A121A01A6
:1021D000F09242504310D8B4F0EF10F0F2EF10F04C
:1021E000FEEF10F002D8FEEF10F00500FA6E42503C
:1021F000FD6E4350FE6EFF6AFA5012001200F0901E
:1022000044504510D8B407EF11F009EF11F015EF65
:1022100011F002D815EF11F00500FA6E4450FD6E72
:102220004550FE6EFF6AFA5012001200F2924650BC
:102230004710D8B41EEF11F020EF11F02CEF11F081
:1022400002D82CEF11F00500FA6E4650FD6E475093
:10225000FE6EFF6AFA5012001200010E636E6150AA
:102260006210D8A436EF11F038EF11F03CEF11F006
:10227000000E636E40EF11F061C042F062C043F0A7
:1022800063501200010E636E61506210D8A44BEFD0
:1022900011F04DEF11F051EF11F0000E636E55EF9C
:1022A00011F061C044F062C045F063501200010EAD
:1022B000636E61506210D8A460EF11F062EF11F00C
:1022C00066EF11F0000E636E6AEF11F061C046F028
:1022D00062C047F063501200800F810F820F830F9E
:1022E000840F000044230179000080230171000065
:1022F000582301699423000001499E2000010141F7
:102300006C50D8A486EF11F088EF11F08CEF11F02B
:10231000000E6D6E92EF11F06C50050F696EDEECE1
:102320000EF06D6E6D501200280E6C6E08EC10F001
:102330002D0E6C6E08EC10F0220E0001A96FC1EC9E
:102340000BF012001550D8B4A8EF11F0AAEF11F05D
:10235000ABEF11F0150612001650D8B4B2EF11F021
:10236000B4EF11F0B5EF11F016061200040E16606E
:10237000BCEF11F0BEEF11F0BFEF11F0162A120002
:10238000040E1560C6EF11F0C8EF11F0C9EF11F09F
:08239000152A1200FF001200E3
:020000040030CA
:0E000000FF02091EFF8181FF0FC00FE00F40BD
:00000001FF
